{
	"Bai-Thuc-Hanh-DTH225710-LeTriNhan/Lab3/Election.sol": {
		"Election": {
			"abi": [
				{
					"inputs": [],
					"stateMutability": "nonpayable",
					"type": "constructor"
				},
				{
					"anonymous": false,
					"inputs": [
						{
							"indexed": false,
							"internalType": "string",
							"name": "name",
							"type": "string"
						}
					],
					"name": "CandidateAdded",
					"type": "event"
				},
				{
					"anonymous": false,
					"inputs": [],
					"name": "ElectionReset",
					"type": "event"
				},
				{
					"anonymous": false,
					"inputs": [
						{
							"indexed": false,
							"internalType": "address",
							"name": "voter",
							"type": "address"
						},
						{
							"indexed": false,
							"internalType": "uint256",
							"name": "candidateId",
							"type": "uint256"
						}
					],
					"name": "VoteRecorded",
					"type": "event"
				},
				{
					"inputs": [
						{
							"internalType": "string",
							"name": "_name",
							"type": "string"
						}
					],
					"name": "addCandidate",
					"outputs": [],
					"stateMutability": "nonpayable",
					"type": "function"
				},
				{
					"inputs": [
						{
							"internalType": "uint256",
							"name": "",
							"type": "uint256"
						}
					],
					"name": "candidates",
					"outputs": [
						{
							"internalType": "uint256",
							"name": "id",
							"type": "uint256"
						},
						{
							"internalType": "string",
							"name": "name",
							"type": "string"
						},
						{
							"internalType": "uint256",
							"name": "voteCount",
							"type": "uint256"
						}
					],
					"stateMutability": "view",
					"type": "function"
				},
				{
					"inputs": [],
					"name": "getCandidatesCount",
					"outputs": [
						{
							"internalType": "uint256",
							"name": "",
							"type": "uint256"
						}
					],
					"stateMutability": "view",
					"type": "function"
				},
				{
					"inputs": [
						{
							"internalType": "address",
							"name": "",
							"type": "address"
						}
					],
					"name": "hasVoted",
					"outputs": [
						{
							"internalType": "bool",
							"name": "",
							"type": "bool"
						}
					],
					"stateMutability": "view",
					"type": "function"
				},
				{
					"inputs": [],
					"name": "owner",
					"outputs": [
						{
							"internalType": "address",
							"name": "",
							"type": "address"
						}
					],
					"stateMutability": "view",
					"type": "function"
				},
				{
					"inputs": [],
					"name": "resetElection",
					"outputs": [],
					"stateMutability": "nonpayable",
					"type": "function"
				},
				{
					"inputs": [
						{
							"internalType": "uint256",
							"name": "_candidateId",
							"type": "uint256"
						}
					],
					"name": "vote",
					"outputs": [],
					"stateMutability": "nonpayable",
					"type": "function"
				},
				{
					"inputs": [
						{
							"internalType": "uint256",
							"name": "",
							"type": "uint256"
						}
					],
					"name": "voters",
					"outputs": [
						{
							"internalType": "address",
							"name": "",
							"type": "address"
						}
					],
					"stateMutability": "view",
					"type": "function"
				}
			],
			"devdoc": {
				"kind": "dev",
				"methods": {},
				"version": 1
			},
			"evm": {
				"assembly": "    /* \"Bai-Thuc-Hanh-DTH225710-LeTriNhan/Lab3/Election.sol\":76:1413  contract Election {\r... */\n  mstore(0x40, 0x80)\n    /* \"Bai-Thuc-Hanh-DTH225710-LeTriNhan/Lab3/Election.sol\":500:589  constructor() {\r... */\n  callvalue\n  dup1\n  iszero\n  tag_1\n  jumpi\n  0x00\n  dup1\n  revert\ntag_1:\n  pop\n    /* \"Bai-Thuc-Hanh-DTH225710-LeTriNhan/Lab3/Election.sol\":526:536  msg.sender */\n  caller\n    /* \"Bai-Thuc-Hanh-DTH225710-LeTriNhan/Lab3/Election.sol\":518:523  owner */\n  0x00\n  dup1\n    /* \"Bai-Thuc-Hanh-DTH225710-LeTriNhan/Lab3/Election.sol\":518:536  owner = msg.sender */\n  0x0100\n  exp\n  dup2\n  sload\n  dup2\n  0xffffffffffffffffffffffffffffffffffffffff\n  mul\n  not\n  and\n  swap1\n  dup4\n  0xffffffffffffffffffffffffffffffffffffffff\n  and\n  mul\n  or\n  swap1\n  sstore\n  pop\n    /* \"Bai-Thuc-Hanh-DTH225710-LeTriNhan/Lab3/Election.sol\":540:561  addCandidate(\"Alice\") */\n  tag_4\n  mload(0x40)\n  dup1\n  0x40\n  add\n  0x40\n  mstore\n  dup1\n  0x05\n  dup2\n  mstore\n  0x20\n  add\n  0x416c696365000000000000000000000000000000000000000000000000000000\n  dup2\n  mstore\n  pop\n    /* \"Bai-Thuc-Hanh-DTH225710-LeTriNhan/Lab3/Election.sol\":540:552  addCandidate */\n  shl(0x20, tag_5)\n    /* \"Bai-Thuc-Hanh-DTH225710-LeTriNhan/Lab3/Election.sol\":540:561  addCandidate(\"Alice\") */\n  0x20\n  shr\n  jump\t// in\ntag_4:\n    /* \"Bai-Thuc-Hanh-DTH225710-LeTriNhan/Lab3/Election.sol\":565:584  addCandidate(\"Bob\") */\n  tag_6\n  mload(0x40)\n  dup1\n  0x40\n  add\n  0x40\n  mstore\n  dup1\n  0x03\n  dup2\n  mstore\n  0x20\n  add\n  0x426f620000000000000000000000000000000000000000000000000000000000\n  dup2\n  mstore\n  pop\n    /* \"Bai-Thuc-Hanh-DTH225710-LeTriNhan/Lab3/Election.sol\":565:577  addCandidate */\n  shl(0x20, tag_5)\n    /* \"Bai-Thuc-Hanh-DTH225710-LeTriNhan/Lab3/Election.sol\":565:584  addCandidate(\"Bob\") */\n  0x20\n  shr\n  jump\t// in\ntag_6:\n    /* \"Bai-Thuc-Hanh-DTH225710-LeTriNhan/Lab3/Election.sol\":76:1413  contract Election {\r... */\n  jump(tag_7)\n    /* \"Bai-Thuc-Hanh-DTH225710-LeTriNhan/Lab3/Election.sol\":592:750  function addCandidate(string memory _name) public \r... */\ntag_5:\n    /* \"Bai-Thuc-Hanh-DTH225710-LeTriNhan/Lab3/Election.sol\":342:347  owner */\n  0x00\n  dup1\n  sload\n  swap1\n  0x0100\n  exp\n  swap1\n  div\n  0xffffffffffffffffffffffffffffffffffffffff\n  and\n    /* \"Bai-Thuc-Hanh-DTH225710-LeTriNhan/Lab3/Election.sol\":328:347  msg.sender == owner */\n  0xffffffffffffffffffffffffffffffffffffffff\n  and\n    /* \"Bai-Thuc-Hanh-DTH225710-LeTriNhan/Lab3/Election.sol\":328:338  msg.sender */\n  caller\n    /* \"Bai-Thuc-Hanh-DTH225710-LeTriNhan/Lab3/Election.sol\":328:347  msg.sender == owner */\n  0xffffffffffffffffffffffffffffffffffffffff\n  and\n  eq\n    /* \"Bai-Thuc-Hanh-DTH225710-LeTriNhan/Lab3/Election.sol\":320:370  require(msg.sender == owner, \"Only owner allowed\") */\n  tag_9\n  jumpi\n  mload(0x40)\n  0x08c379a000000000000000000000000000000000000000000000000000000000\n  dup2\n  mstore\n  0x04\n  add\n  tag_10\n  swap1\n  tag_11\n  jump\t// in\ntag_10:\n  mload(0x40)\n  dup1\n  swap2\n  sub\n  swap1\n  revert\ntag_9:\n    /* \"Bai-Thuc-Hanh-DTH225710-LeTriNhan/Lab3/Election.sol\":658:668  candidates */\n  0x01\n    /* \"Bai-Thuc-Hanh-DTH225710-LeTriNhan/Lab3/Election.sol\":674:714  Candidate(candidates.length, _name, \r... */\n  mload(0x40)\n  dup1\n  0x60\n  add\n  0x40\n  mstore\n  dup1\n    /* \"Bai-Thuc-Hanh-DTH225710-LeTriNhan/Lab3/Election.sol\":684:694  candidates */\n  0x01\n    /* \"Bai-Thuc-Hanh-DTH225710-LeTriNhan/Lab3/Election.sol\":684:701  candidates.length */\n  dup1\n  sload\n  swap1\n  pop\n    /* \"Bai-Thuc-Hanh-DTH225710-LeTriNhan/Lab3/Election.sol\":674:714  Candidate(candidates.length, _name, \r... */\n  dup2\n  mstore\n  0x20\n  add\n    /* \"Bai-Thuc-Hanh-DTH225710-LeTriNhan/Lab3/Election.sol\":703:708  _name */\n  dup4\n    /* \"Bai-Thuc-Hanh-DTH225710-LeTriNhan/Lab3/Election.sol\":674:714  Candidate(candidates.length, _name, \r... */\n  dup2\n  mstore\n  0x20\n  add\n    /* \"Bai-Thuc-Hanh-DTH225710-LeTriNhan/Lab3/Election.sol\":712:713  0 */\n  0x00\n    /* \"Bai-Thuc-Hanh-DTH225710-LeTriNhan/Lab3/Election.sol\":674:714  Candidate(candidates.length, _name, \r... */\n  dup2\n  mstore\n  pop\n    /* \"Bai-Thuc-Hanh-DTH225710-LeTriNhan/Lab3/Election.sol\":658:715  candidates.push(Candidate(candidates.length, _name, \r... */\n  swap1\n  dup1\n  0x01\n  dup2\n  sload\n  add\n  dup1\n  dup3\n  sstore\n  dup1\n  swap2\n  pop\n  pop\n  0x01\n  swap1\n  sub\n  swap1\n  0x00\n  mstore\n  keccak256(0x00, 0x20)\n  swap1\n  0x03\n  mul\n  add\n  0x00\n  swap1\n  swap2\n  swap1\n  swap2\n  swap1\n  swap2\n  pop\n  0x00\n  dup3\n  add\n  mload\n  dup2\n  0x00\n  add\n  sstore\n  0x20\n  dup3\n  add\n  mload\n  dup2\n  0x01\n  add\n  swap1\n  dup1\n  mload\n  swap1\n  0x20\n  add\n  swap1\n  tag_14\n  swap3\n  swap2\n  swap1\n  tag_15\n  jump\t// in\ntag_14:\n  pop\n  0x40\n  dup3\n  add\n  mload\n  dup2\n  0x02\n  add\n  sstore\n  pop\n  pop\n    /* \"Bai-Thuc-Hanh-DTH225710-LeTriNhan/Lab3/Election.sol\":724:745  CandidateAdded(_name) */\n  0xf29562dad1599aea0ebb142466120aab326d5efa8f839df82a9c064bf78e8938\n    /* \"Bai-Thuc-Hanh-DTH225710-LeTriNhan/Lab3/Election.sol\":739:744  _name */\n  dup2\n    /* \"Bai-Thuc-Hanh-DTH225710-LeTriNhan/Lab3/Election.sol\":724:745  CandidateAdded(_name) */\n  mload(0x40)\n  tag_16\n  swap2\n  swap1\n  tag_17\n  jump\t// in\ntag_16:\n  mload(0x40)\n  dup1\n  swap2\n  sub\n  swap1\n  log1\n    /* \"Bai-Thuc-Hanh-DTH225710-LeTriNhan/Lab3/Election.sol\":592:750  function addCandidate(string memory _name) public \r... */\n  pop\n  jump\t// out\n    /* \"Bai-Thuc-Hanh-DTH225710-LeTriNhan/Lab3/Election.sol\":76:1413  contract Election {\r... */\ntag_15:\n  dup3\n  dup1\n  sload\n  tag_18\n  swap1\n  tag_19\n  jump\t// in\ntag_18:\n  swap1\n  0x00\n  mstore\n  keccak256(0x00, 0x20)\n  swap1\n  0x1f\n  add\n  0x20\n  swap1\n  div\n  dup2\n  add\n  swap3\n  dup3\n  tag_21\n  jumpi\n  0x00\n  dup6\n  sstore\n  jump(tag_20)\ntag_21:\n  dup3\n  0x1f\n  lt\n  tag_22\n  jumpi\n  dup1\n  mload\n  not(0xff)\n  and\n  dup4\n  dup1\n  add\n  or\n  dup6\n  sstore\n  jump(tag_20)\ntag_22:\n  dup3\n  dup1\n  add\n  0x01\n  add\n  dup6\n  sstore\n  dup3\n  iszero\n  tag_20\n  jumpi\n  swap2\n  dup3\n  add\ntag_23:\n  dup3\n  dup2\n  gt\n  iszero\n  tag_24\n  jumpi\n  dup3\n  mload\n  dup3\n  sstore\n  swap2\n  0x20\n  add\n  swap2\n  swap1\n  0x01\n  add\n  swap1\n  jump(tag_23)\ntag_24:\ntag_20:\n  pop\n  swap1\n  pop\n  tag_25\n  swap2\n  swap1\n  tag_26\n  jump\t// in\ntag_25:\n  pop\n  swap1\n  jump\t// out\ntag_26:\ntag_27:\n  dup1\n  dup3\n  gt\n  iszero\n  tag_28\n  jumpi\n  0x00\n  dup2\n  0x00\n  swap1\n  sstore\n  pop\n  0x01\n  add\n  jump(tag_27)\ntag_28:\n  pop\n  swap1\n  jump\t// out\n    /* \"#utility.yul\":7:371   */\ntag_30:\n  0x00\n    /* \"#utility.yul\":123:162   */\n  tag_32\n    /* \"#utility.yul\":156:161   */\n  dup3\n    /* \"#utility.yul\":123:162   */\n  tag_33\n  jump\t// in\ntag_32:\n    /* \"#utility.yul\":178:249   */\n  tag_34\n    /* \"#utility.yul\":242:248   */\n  dup2\n    /* \"#utility.yul\":237:240   */\n  dup6\n    /* \"#utility.yul\":178:249   */\n  tag_35\n  jump\t// in\ntag_34:\n    /* \"#utility.yul\":171:249   */\n  swap4\n  pop\n    /* \"#utility.yul\":258:310   */\n  tag_36\n    /* \"#utility.yul\":303:309   */\n  dup2\n    /* \"#utility.yul\":298:301   */\n  dup6\n    /* \"#utility.yul\":291:295   */\n  0x20\n    /* \"#utility.yul\":284:289   */\n  dup7\n    /* \"#utility.yul\":280:296   */\n  add\n    /* \"#utility.yul\":258:310   */\n  tag_37\n  jump\t// in\ntag_36:\n    /* \"#utility.yul\":335:364   */\n  tag_38\n    /* \"#utility.yul\":357:363   */\n  dup2\n    /* \"#utility.yul\":335:364   */\n  tag_39\n  jump\t// in\ntag_38:\n    /* \"#utility.yul\":330:333   */\n  dup5\n    /* \"#utility.yul\":326:365   */\n  add\n    /* \"#utility.yul\":319:365   */\n  swap2\n  pop\n    /* \"#utility.yul\":99:371   */\n  pop\n  swap3\n  swap2\n  pop\n  pop\n  jump\t// out\n    /* \"#utility.yul\":377:693   */\ntag_40:\n  0x00\n    /* \"#utility.yul\":540:607   */\n  tag_42\n    /* \"#utility.yul\":604:606   */\n  0x12\n    /* \"#utility.yul\":599:602   */\n  dup4\n    /* \"#utility.yul\":540:607   */\n  tag_35\n  jump\t// in\ntag_42:\n    /* \"#utility.yul\":533:607   */\n  swap2\n  pop\n    /* \"#utility.yul\":637:657   */\n  0x4f6e6c79206f776e657220616c6c6f7765640000000000000000000000000000\n    /* \"#utility.yul\":633:634   */\n  0x00\n    /* \"#utility.yul\":628:631   */\n  dup4\n    /* \"#utility.yul\":624:635   */\n  add\n    /* \"#utility.yul\":617:658   */\n  mstore\n    /* \"#utility.yul\":684:686   */\n  0x20\n    /* \"#utility.yul\":679:682   */\n  dup3\n    /* \"#utility.yul\":675:687   */\n  add\n    /* \"#utility.yul\":668:687   */\n  swap1\n  pop\n    /* \"#utility.yul\":523:693   */\n  swap2\n  swap1\n  pop\n  jump\t// out\n    /* \"#utility.yul\":699:1012   */\ntag_17:\n  0x00\n    /* \"#utility.yul\":850:852   */\n  0x20\n    /* \"#utility.yul\":839:848   */\n  dup3\n    /* \"#utility.yul\":835:853   */\n  add\n    /* \"#utility.yul\":827:853   */\n  swap1\n  pop\n    /* \"#utility.yul\":899:908   */\n  dup2\n    /* \"#utility.yul\":893:897   */\n  dup2\n    /* \"#utility.yul\":889:909   */\n  sub\n    /* \"#utility.yul\":885:886   */\n  0x00\n    /* \"#utility.yul\":874:883   */\n  dup4\n    /* \"#utility.yul\":870:887   */\n  add\n    /* \"#utility.yul\":863:910   */\n  mstore\n    /* \"#utility.yul\":927:1005   */\n  tag_44\n    /* \"#utility.yul\":1000:1004   */\n  dup2\n    /* \"#utility.yul\":991:997   */\n  dup5\n    /* \"#utility.yul\":927:1005   */\n  tag_30\n  jump\t// in\ntag_44:\n    /* \"#utility.yul\":919:1005   */\n  swap1\n  pop\n    /* \"#utility.yul\":817:1012   */\n  swap3\n  swap2\n  pop\n  pop\n  jump\t// out\n    /* \"#utility.yul\":1018:1437   */\ntag_11:\n  0x00\n    /* \"#utility.yul\":1222:1224   */\n  0x20\n    /* \"#utility.yul\":1211:1220   */\n  dup3\n    /* \"#utility.yul\":1207:1225   */\n  add\n    /* \"#utility.yul\":1199:1225   */\n  swap1\n  pop\n    /* \"#utility.yul\":1271:1280   */\n  dup2\n    /* \"#utility.yul\":1265:1269   */\n  dup2\n    /* \"#utility.yul\":1261:1281   */\n  sub\n    /* \"#utility.yul\":1257:1258   */\n  0x00\n    /* \"#utility.yul\":1246:1255   */\n  dup4\n    /* \"#utility.yul\":1242:1259   */\n  add\n    /* \"#utility.yul\":1235:1282   */\n  mstore\n    /* \"#utility.yul\":1299:1430   */\n  tag_46\n    /* \"#utility.yul\":1425:1429   */\n  dup2\n    /* \"#utility.yul\":1299:1430   */\n  tag_40\n  jump\t// in\ntag_46:\n    /* \"#utility.yul\":1291:1430   */\n  swap1\n  pop\n    /* \"#utility.yul\":1189:1437   */\n  swap2\n  swap1\n  pop\n  jump\t// out\n    /* \"#utility.yul\":1443:1542   */\ntag_33:\n  0x00\n    /* \"#utility.yul\":1529:1534   */\n  dup2\n    /* \"#utility.yul\":1523:1535   */\n  mload\n    /* \"#utility.yul\":1513:1535   */\n  swap1\n  pop\n    /* \"#utility.yul\":1502:1542   */\n  swap2\n  swap1\n  pop\n  jump\t// out\n    /* \"#utility.yul\":1548:1717   */\ntag_35:\n  0x00\n    /* \"#utility.yul\":1666:1672   */\n  dup3\n    /* \"#utility.yul\":1661:1664   */\n  dup3\n    /* \"#utility.yul\":1654:1673   */\n  mstore\n    /* \"#utility.yul\":1706:1710   */\n  0x20\n    /* \"#utility.yul\":1701:1704   */\n  dup3\n    /* \"#utility.yul\":1697:1711   */\n  add\n    /* \"#utility.yul\":1682:1711   */\n  swap1\n  pop\n    /* \"#utility.yul\":1644:1717   */\n  swap3\n  swap2\n  pop\n  pop\n  jump\t// out\n    /* \"#utility.yul\":1723:2030   */\ntag_37:\n    /* \"#utility.yul\":1791:1792   */\n  0x00\n    /* \"#utility.yul\":1801:1914   */\ntag_50:\n    /* \"#utility.yul\":1815:1821   */\n  dup4\n    /* \"#utility.yul\":1812:1813   */\n  dup2\n    /* \"#utility.yul\":1809:1822   */\n  lt\n    /* \"#utility.yul\":1801:1914   */\n  iszero\n  tag_52\n  jumpi\n    /* \"#utility.yul\":1900:1901   */\n  dup1\n    /* \"#utility.yul\":1895:1898   */\n  dup3\n    /* \"#utility.yul\":1891:1902   */\n  add\n    /* \"#utility.yul\":1885:1903   */\n  mload\n    /* \"#utility.yul\":1881:1882   */\n  dup2\n    /* \"#utility.yul\":1876:1879   */\n  dup5\n    /* \"#utility.yul\":1872:1883   */\n  add\n    /* \"#utility.yul\":1865:1904   */\n  mstore\n    /* \"#utility.yul\":1837:1839   */\n  0x20\n    /* \"#utility.yul\":1834:1835   */\n  dup2\n    /* \"#utility.yul\":1830:1840   */\n  add\n    /* \"#utility.yul\":1825:1840   */\n  swap1\n  pop\n    /* \"#utility.yul\":1801:1914   */\n  jump(tag_50)\ntag_52:\n    /* \"#utility.yul\":1932:1938   */\n  dup4\n    /* \"#utility.yul\":1929:1930   */\n  dup2\n    /* \"#utility.yul\":1926:1939   */\n  gt\n    /* \"#utility.yul\":1923:1925   */\n  iszero\n  tag_53\n  jumpi\n    /* \"#utility.yul\":2012:2013   */\n  0x00\n    /* \"#utility.yul\":2003:2009   */\n  dup5\n    /* \"#utility.yul\":1998:2001   */\n  dup5\n    /* \"#utility.yul\":1994:2010   */\n  add\n    /* \"#utility.yul\":1987:2014   */\n  mstore\n    /* \"#utility.yul\":1923:1925   */\ntag_53:\n    /* \"#utility.yul\":1772:2030   */\n  pop\n  pop\n  pop\n  pop\n  jump\t// out\n    /* \"#utility.yul\":2036:2356   */\ntag_19:\n  0x00\n    /* \"#utility.yul\":2117:2118   */\n  0x02\n    /* \"#utility.yul\":2111:2115   */\n  dup3\n    /* \"#utility.yul\":2107:2119   */\n  div\n    /* \"#utility.yul\":2097:2119   */\n  swap1\n  pop\n    /* \"#utility.yul\":2164:2165   */\n  0x01\n    /* \"#utility.yul\":2158:2162   */\n  dup3\n    /* \"#utility.yul\":2154:2166   */\n  and\n    /* \"#utility.yul\":2185:2203   */\n  dup1\n    /* \"#utility.yul\":2175:2177   */\n  tag_55\n  jumpi\n    /* \"#utility.yul\":2241:2245   */\n  0x7f\n    /* \"#utility.yul\":2233:2239   */\n  dup3\n    /* \"#utility.yul\":2229:2246   */\n  and\n    /* \"#utility.yul\":2219:2246   */\n  swap2\n  pop\n    /* \"#utility.yul\":2175:2177   */\ntag_55:\n    /* \"#utility.yul\":2303:2305   */\n  0x20\n    /* \"#utility.yul\":2295:2301   */\n  dup3\n    /* \"#utility.yul\":2292:2306   */\n  lt\n    /* \"#utility.yul\":2272:2290   */\n  dup2\n    /* \"#utility.yul\":2269:2307   */\n  eq\n    /* \"#utility.yul\":2266:2268   */\n  iszero\n  tag_56\n  jumpi\n    /* \"#utility.yul\":2322:2340   */\n  tag_57\n  tag_58\n  jump\t// in\ntag_57:\n    /* \"#utility.yul\":2266:2268   */\ntag_56:\n    /* \"#utility.yul\":2087:2356   */\n  pop\n  swap2\n  swap1\n  pop\n  jump\t// out\n    /* \"#utility.yul\":2362:2542   */\ntag_58:\n    /* \"#utility.yul\":2410:2487   */\n  0x4e487b7100000000000000000000000000000000000000000000000000000000\n    /* \"#utility.yul\":2407:2408   */\n  0x00\n    /* \"#utility.yul\":2400:2488   */\n  mstore\n    /* \"#utility.yul\":2507:2511   */\n  0x22\n    /* \"#utility.yul\":2504:2505   */\n  0x04\n    /* \"#utility.yul\":2497:2512   */\n  mstore\n    /* \"#utility.yul\":2531:2535   */\n  0x24\n    /* \"#utility.yul\":2528:2529   */\n  0x00\n    /* \"#utility.yul\":2521:2536   */\n  revert\n    /* \"#utility.yul\":2548:2650   */\ntag_39:\n  0x00\n    /* \"#utility.yul\":2640:2642   */\n  0x1f\n    /* \"#utility.yul\":2636:2643   */\n  not\n    /* \"#utility.yul\":2631:2633   */\n  0x1f\n    /* \"#utility.yul\":2624:2629   */\n  dup4\n    /* \"#utility.yul\":2620:2634   */\n  add\n    /* \"#utility.yul\":2616:2644   */\n  and\n    /* \"#utility.yul\":2606:2644   */\n  swap1\n  pop\n    /* \"#utility.yul\":2596:2650   */\n  swap2\n  swap1\n  pop\n  jump\t// out\n    /* \"Bai-Thuc-Hanh-DTH225710-LeTriNhan/Lab3/Election.sol\":76:1413  contract Election {\r... */\ntag_7:\n  dataSize(sub_0)\n  dup1\n  dataOffset(sub_0)\n  0x00\n  codecopy\n  0x00\n  return\nstop\n\nsub_0: assembly {\n        /* \"Bai-Thuc-Hanh-DTH225710-LeTriNhan/Lab3/Election.sol\":76:1413  contract Election {\r... */\n      mstore(0x40, 0x80)\n      callvalue\n      dup1\n      iszero\n      tag_1\n      jumpi\n      0x00\n      dup1\n      revert\n    tag_1:\n      pop\n      jumpi(tag_2, lt(calldatasize, 0x04))\n      shr(0xe0, calldataload(0x00))\n      dup1\n      0x8da5cb5b\n      gt\n      tag_11\n      jumpi\n      dup1\n      0x8da5cb5b\n      eq\n      tag_7\n      jumpi\n      dup1\n      0xbb9aa28f\n      eq\n      tag_8\n      jumpi\n      dup1\n      0xda58c7d9\n      eq\n      tag_9\n      jumpi\n      dup1\n      0xe8f30523\n      eq\n      tag_10\n      jumpi\n      jump(tag_2)\n    tag_11:\n      dup1\n      0x0121b93f\n      eq\n      tag_3\n      jumpi\n      dup1\n      0x09eef43e\n      eq\n      tag_4\n      jumpi\n      dup1\n      0x3477ee2e\n      eq\n      tag_5\n      jumpi\n      dup1\n      0x462e91ec\n      eq\n      tag_6\n      jumpi\n    tag_2:\n      0x00\n      dup1\n      revert\n        /* \"Bai-Thuc-Hanh-DTH225710-LeTriNhan/Lab3/Election.sol\":753:1060  function vote(uint _candidateId) public {\r... */\n    tag_3:\n      tag_12\n      0x04\n      dup1\n      calldatasize\n      sub\n      dup2\n      add\n      swap1\n      tag_13\n      swap2\n      swap1\n      tag_14\n      jump\t// in\n    tag_13:\n      tag_15\n      jump\t// in\n    tag_12:\n      stop\n        /* \"Bai-Thuc-Hanh-DTH225710-LeTriNhan/Lab3/Election.sol\":224:264  mapping(address => bool) public hasVoted */\n    tag_4:\n      tag_16\n      0x04\n      dup1\n      calldatasize\n      sub\n      dup2\n      add\n      swap1\n      tag_17\n      swap2\n      swap1\n      tag_18\n      jump\t// in\n    tag_17:\n      tag_19\n      jump\t// in\n    tag_16:\n      mload(0x40)\n      tag_20\n      swap2\n      swap1\n      tag_21\n      jump\t// in\n    tag_20:\n      mload(0x40)\n      dup1\n      swap2\n      sub\n      swap1\n      return\n        /* \"Bai-Thuc-Hanh-DTH225710-LeTriNhan/Lab3/Election.sol\":191:220  Candidate[] public candidates */\n    tag_5:\n      tag_22\n      0x04\n      dup1\n      calldatasize\n      sub\n      dup2\n      add\n      swap1\n      tag_23\n      swap2\n      swap1\n      tag_14\n      jump\t// in\n    tag_23:\n      tag_24\n      jump\t// in\n    tag_22:\n      mload(0x40)\n      tag_25\n      swap4\n      swap3\n      swap2\n      swap1\n      tag_26\n      jump\t// in\n    tag_25:\n      mload(0x40)\n      dup1\n      swap2\n      sub\n      swap1\n      return\n        /* \"Bai-Thuc-Hanh-DTH225710-LeTriNhan/Lab3/Election.sol\":592:750  function addCandidate(string memory _name) public \r... */\n    tag_6:\n      tag_27\n      0x04\n      dup1\n      calldatasize\n      sub\n      dup2\n      add\n      swap1\n      tag_28\n      swap2\n      swap1\n      tag_29\n      jump\t// in\n    tag_28:\n      tag_30\n      jump\t// in\n    tag_27:\n      stop\n        /* \"Bai-Thuc-Hanh-DTH225710-LeTriNhan/Lab3/Election.sol\":98:118  address public owner */\n    tag_7:\n      tag_31\n      tag_32\n      jump\t// in\n    tag_31:\n      mload(0x40)\n      tag_33\n      swap2\n      swap1\n      tag_34\n      jump\t// in\n    tag_33:\n      mload(0x40)\n      dup1\n      swap2\n      sub\n      swap1\n      return\n        /* \"Bai-Thuc-Hanh-DTH225710-LeTriNhan/Lab3/Election.sol\":1063:1155  function getCandidatesCount() public view returns (uint) \r... */\n    tag_8:\n      tag_35\n      tag_36\n      jump\t// in\n    tag_35:\n      mload(0x40)\n      tag_37\n      swap2\n      swap1\n      tag_38\n      jump\t// in\n    tag_37:\n      mload(0x40)\n      dup1\n      swap2\n      sub\n      swap1\n      return\n        /* \"Bai-Thuc-Hanh-DTH225710-LeTriNhan/Lab3/Election.sol\":268:291  address[] public voters */\n    tag_9:\n      tag_39\n      0x04\n      dup1\n      calldatasize\n      sub\n      dup2\n      add\n      swap1\n      tag_40\n      swap2\n      swap1\n      tag_14\n      jump\t// in\n    tag_40:\n      tag_41\n      jump\t// in\n    tag_39:\n      mload(0x40)\n      tag_42\n      swap2\n      swap1\n      tag_34\n      jump\t// in\n    tag_42:\n      mload(0x40)\n      dup1\n      swap2\n      sub\n      swap1\n      return\n        /* \"Bai-Thuc-Hanh-DTH225710-LeTriNhan/Lab3/Election.sol\":1158:1410  function resetElection() public onlyOwner {\r... */\n    tag_10:\n      tag_43\n      tag_44\n      jump\t// in\n    tag_43:\n      stop\n        /* \"Bai-Thuc-Hanh-DTH225710-LeTriNhan/Lab3/Election.sol\":753:1060  function vote(uint _candidateId) public {\r... */\n    tag_15:\n        /* \"Bai-Thuc-Hanh-DTH225710-LeTriNhan/Lab3/Election.sol\":806:814  hasVoted */\n      0x02\n        /* \"Bai-Thuc-Hanh-DTH225710-LeTriNhan/Lab3/Election.sol\":806:826  hasVoted[msg.sender] */\n      0x00\n        /* \"Bai-Thuc-Hanh-DTH225710-LeTriNhan/Lab3/Election.sol\":815:825  msg.sender */\n      caller\n        /* \"Bai-Thuc-Hanh-DTH225710-LeTriNhan/Lab3/Election.sol\":806:826  hasVoted[msg.sender] */\n      0xffffffffffffffffffffffffffffffffffffffff\n      and\n      0xffffffffffffffffffffffffffffffffffffffff\n      and\n      dup2\n      mstore\n      0x20\n      add\n      swap1\n      dup2\n      mstore\n      0x20\n      add\n      0x00\n      keccak256\n      0x00\n      swap1\n      sload\n      swap1\n      0x0100\n      exp\n      swap1\n      div\n      0xff\n      and\n        /* \"Bai-Thuc-Hanh-DTH225710-LeTriNhan/Lab3/Election.sol\":805:826  !hasVoted[msg.sender] */\n      iszero\n        /* \"Bai-Thuc-Hanh-DTH225710-LeTriNhan/Lab3/Election.sol\":797:844  require(!hasVoted[msg.sender], \"Already voted\") */\n      tag_46\n      jumpi\n      mload(0x40)\n      0x08c379a000000000000000000000000000000000000000000000000000000000\n      dup2\n      mstore\n      0x04\n      add\n      tag_47\n      swap1\n      tag_48\n      jump\t// in\n    tag_47:\n      mload(0x40)\n      dup1\n      swap2\n      sub\n      swap1\n      revert\n    tag_46:\n        /* \"Bai-Thuc-Hanh-DTH225710-LeTriNhan/Lab3/Election.sol\":871:881  candidates */\n      0x01\n        /* \"Bai-Thuc-Hanh-DTH225710-LeTriNhan/Lab3/Election.sol\":871:888  candidates.length */\n      dup1\n      sload\n      swap1\n      pop\n        /* \"Bai-Thuc-Hanh-DTH225710-LeTriNhan/Lab3/Election.sol\":856:868  _candidateId */\n      dup2\n        /* \"Bai-Thuc-Hanh-DTH225710-LeTriNhan/Lab3/Election.sol\":856:888  _candidateId < candidates.length */\n      lt\n        /* \"Bai-Thuc-Hanh-DTH225710-LeTriNhan/Lab3/Election.sol\":848:910  require(_candidateId < candidates.length, \"Invalid candidate\") */\n      tag_49\n      jumpi\n      mload(0x40)\n      0x08c379a000000000000000000000000000000000000000000000000000000000\n      dup2\n      mstore\n      0x04\n      add\n      tag_50\n      swap1\n      tag_51\n      jump\t// in\n    tag_50:\n      mload(0x40)\n      dup1\n      swap2\n      sub\n      swap1\n      revert\n    tag_49:\n        /* \"Bai-Thuc-Hanh-DTH225710-LeTriNhan/Lab3/Election.sol\":937:941  true */\n      0x01\n        /* \"Bai-Thuc-Hanh-DTH225710-LeTriNhan/Lab3/Election.sol\":914:922  hasVoted */\n      0x02\n        /* \"Bai-Thuc-Hanh-DTH225710-LeTriNhan/Lab3/Election.sol\":914:934  hasVoted[msg.sender] */\n      0x00\n        /* \"Bai-Thuc-Hanh-DTH225710-LeTriNhan/Lab3/Election.sol\":923:933  msg.sender */\n      caller\n        /* \"Bai-Thuc-Hanh-DTH225710-LeTriNhan/Lab3/Election.sol\":914:934  hasVoted[msg.sender] */\n      0xffffffffffffffffffffffffffffffffffffffff\n      and\n      0xffffffffffffffffffffffffffffffffffffffff\n      and\n      dup2\n      mstore\n      0x20\n      add\n      swap1\n      dup2\n      mstore\n      0x20\n      add\n      0x00\n      keccak256\n      0x00\n        /* \"Bai-Thuc-Hanh-DTH225710-LeTriNhan/Lab3/Election.sol\":914:941  hasVoted[msg.sender] = true */\n      0x0100\n      exp\n      dup2\n      sload\n      dup2\n      0xff\n      mul\n      not\n      and\n      swap1\n      dup4\n      iszero\n      iszero\n      mul\n      or\n      swap1\n      sstore\n      pop\n        /* \"Bai-Thuc-Hanh-DTH225710-LeTriNhan/Lab3/Election.sol\":945:951  voters */\n      0x03\n        /* \"Bai-Thuc-Hanh-DTH225710-LeTriNhan/Lab3/Election.sol\":957:967  msg.sender */\n      caller\n        /* \"Bai-Thuc-Hanh-DTH225710-LeTriNhan/Lab3/Election.sol\":945:968  voters.push(msg.sender) */\n      swap1\n      dup1\n      0x01\n      dup2\n      sload\n      add\n      dup1\n      dup3\n      sstore\n      dup1\n      swap2\n      pop\n      pop\n      0x01\n      swap1\n      sub\n      swap1\n      0x00\n      mstore\n      keccak256(0x00, 0x20)\n      add\n      0x00\n      swap1\n      swap2\n      swap1\n      swap2\n      swap1\n      swap2\n      0x0100\n      exp\n      dup2\n      sload\n      dup2\n      0xffffffffffffffffffffffffffffffffffffffff\n      mul\n      not\n      and\n      swap1\n      dup4\n      0xffffffffffffffffffffffffffffffffffffffff\n      and\n      mul\n      or\n      swap1\n      sstore\n      pop\n        /* \"Bai-Thuc-Hanh-DTH225710-LeTriNhan/Lab3/Election.sol\":972:982  candidates */\n      0x01\n        /* \"Bai-Thuc-Hanh-DTH225710-LeTriNhan/Lab3/Election.sol\":983:995  _candidateId */\n      dup2\n        /* \"Bai-Thuc-Hanh-DTH225710-LeTriNhan/Lab3/Election.sol\":972:996  candidates[_candidateId] */\n      dup2\n      sload\n      dup2\n      lt\n      tag_53\n      jumpi\n      mstore(0x00, 0x4e487b7100000000000000000000000000000000000000000000000000000000)\n      mstore(0x04, 0x32)\n      revert(0x00, 0x24)\n    tag_53:\n      swap1\n      0x00\n      mstore\n      keccak256(0x00, 0x20)\n      swap1\n      0x03\n      mul\n      add\n        /* \"Bai-Thuc-Hanh-DTH225710-LeTriNhan/Lab3/Election.sol\":972:1006  candidates[_candidateId].voteCount */\n      0x02\n      add\n      0x00\n        /* \"Bai-Thuc-Hanh-DTH225710-LeTriNhan/Lab3/Election.sol\":972:1008  candidates[_candidateId].voteCount++ */\n      dup2\n      sload\n      dup1\n      swap3\n      swap2\n      swap1\n      tag_55\n      swap1\n      tag_56\n      jump\t// in\n    tag_55:\n      swap2\n      swap1\n      pop\n      sstore\n      pop\n        /* \"Bai-Thuc-Hanh-DTH225710-LeTriNhan/Lab3/Election.sol\":1017:1055  VoteRecorded(msg.sender, _candidateId) */\n      0x8526c3debc05fa47d452deff6098c92355df470ccfdaeaf2c357db45e4451a2c\n        /* \"Bai-Thuc-Hanh-DTH225710-LeTriNhan/Lab3/Election.sol\":1030:1040  msg.sender */\n      caller\n        /* \"Bai-Thuc-Hanh-DTH225710-LeTriNhan/Lab3/Election.sol\":1042:1054  _candidateId */\n      dup3\n        /* \"Bai-Thuc-Hanh-DTH225710-LeTriNhan/Lab3/Election.sol\":1017:1055  VoteRecorded(msg.sender, _candidateId) */\n      mload(0x40)\n      tag_57\n      swap3\n      swap2\n      swap1\n      tag_58\n      jump\t// in\n    tag_57:\n      mload(0x40)\n      dup1\n      swap2\n      sub\n      swap1\n      log1\n        /* \"Bai-Thuc-Hanh-DTH225710-LeTriNhan/Lab3/Election.sol\":753:1060  function vote(uint _candidateId) public {\r... */\n      pop\n      jump\t// out\n        /* \"Bai-Thuc-Hanh-DTH225710-LeTriNhan/Lab3/Election.sol\":224:264  mapping(address => bool) public hasVoted */\n    tag_19:\n      mstore(0x20, 0x02)\n      dup1\n      0x00\n      mstore\n      keccak256(0x00, 0x40)\n      0x00\n      swap2\n      pop\n      sload\n      swap1\n      0x0100\n      exp\n      swap1\n      div\n      0xff\n      and\n      dup2\n      jump\t// out\n        /* \"Bai-Thuc-Hanh-DTH225710-LeTriNhan/Lab3/Election.sol\":191:220  Candidate[] public candidates */\n    tag_24:\n      0x01\n      dup2\n      dup2\n      sload\n      dup2\n      lt\n      tag_59\n      jumpi\n      0x00\n      dup1\n      revert\n    tag_59:\n      swap1\n      0x00\n      mstore\n      keccak256(0x00, 0x20)\n      swap1\n      0x03\n      mul\n      add\n      0x00\n      swap2\n      pop\n      swap1\n      pop\n      dup1\n      0x00\n      add\n      sload\n      swap1\n      dup1\n      0x01\n      add\n      dup1\n      sload\n      tag_61\n      swap1\n      tag_62\n      jump\t// in\n    tag_61:\n      dup1\n      0x1f\n      add\n      0x20\n      dup1\n      swap2\n      div\n      mul\n      0x20\n      add\n      mload(0x40)\n      swap1\n      dup2\n      add\n      0x40\n      mstore\n      dup1\n      swap3\n      swap2\n      swap1\n      dup2\n      dup2\n      mstore\n      0x20\n      add\n      dup3\n      dup1\n      sload\n      tag_63\n      swap1\n      tag_62\n      jump\t// in\n    tag_63:\n      dup1\n      iszero\n      tag_64\n      jumpi\n      dup1\n      0x1f\n      lt\n      tag_65\n      jumpi\n      0x0100\n      dup1\n      dup4\n      sload\n      div\n      mul\n      dup4\n      mstore\n      swap2\n      0x20\n      add\n      swap2\n      jump(tag_64)\n    tag_65:\n      dup3\n      add\n      swap2\n      swap1\n      0x00\n      mstore\n      keccak256(0x00, 0x20)\n      swap1\n    tag_66:\n      dup2\n      sload\n      dup2\n      mstore\n      swap1\n      0x01\n      add\n      swap1\n      0x20\n      add\n      dup1\n      dup4\n      gt\n      tag_66\n      jumpi\n      dup3\n      swap1\n      sub\n      0x1f\n      and\n      dup3\n      add\n      swap2\n    tag_64:\n      pop\n      pop\n      pop\n      pop\n      pop\n      swap1\n      dup1\n      0x02\n      add\n      sload\n      swap1\n      pop\n      dup4\n      jump\t// out\n        /* \"Bai-Thuc-Hanh-DTH225710-LeTriNhan/Lab3/Election.sol\":592:750  function addCandidate(string memory _name) public \r... */\n    tag_30:\n        /* \"Bai-Thuc-Hanh-DTH225710-LeTriNhan/Lab3/Election.sol\":342:347  owner */\n      0x00\n      dup1\n      sload\n      swap1\n      0x0100\n      exp\n      swap1\n      div\n      0xffffffffffffffffffffffffffffffffffffffff\n      and\n        /* \"Bai-Thuc-Hanh-DTH225710-LeTriNhan/Lab3/Election.sol\":328:347  msg.sender == owner */\n      0xffffffffffffffffffffffffffffffffffffffff\n      and\n        /* \"Bai-Thuc-Hanh-DTH225710-LeTriNhan/Lab3/Election.sol\":328:338  msg.sender */\n      caller\n        /* \"Bai-Thuc-Hanh-DTH225710-LeTriNhan/Lab3/Election.sol\":328:347  msg.sender == owner */\n      0xffffffffffffffffffffffffffffffffffffffff\n      and\n      eq\n        /* \"Bai-Thuc-Hanh-DTH225710-LeTriNhan/Lab3/Election.sol\":320:370  require(msg.sender == owner, \"Only owner allowed\") */\n      tag_68\n      jumpi\n      mload(0x40)\n      0x08c379a000000000000000000000000000000000000000000000000000000000\n      dup2\n      mstore\n      0x04\n      add\n      tag_69\n      swap1\n      tag_70\n      jump\t// in\n    tag_69:\n      mload(0x40)\n      dup1\n      swap2\n      sub\n      swap1\n      revert\n    tag_68:\n        /* \"Bai-Thuc-Hanh-DTH225710-LeTriNhan/Lab3/Election.sol\":658:668  candidates */\n      0x01\n        /* \"Bai-Thuc-Hanh-DTH225710-LeTriNhan/Lab3/Election.sol\":674:714  Candidate(candidates.length, _name, \r... */\n      mload(0x40)\n      dup1\n      0x60\n      add\n      0x40\n      mstore\n      dup1\n        /* \"Bai-Thuc-Hanh-DTH225710-LeTriNhan/Lab3/Election.sol\":684:694  candidates */\n      0x01\n        /* \"Bai-Thuc-Hanh-DTH225710-LeTriNhan/Lab3/Election.sol\":684:701  candidates.length */\n      dup1\n      sload\n      swap1\n      pop\n        /* \"Bai-Thuc-Hanh-DTH225710-LeTriNhan/Lab3/Election.sol\":674:714  Candidate(candidates.length, _name, \r... */\n      dup2\n      mstore\n      0x20\n      add\n        /* \"Bai-Thuc-Hanh-DTH225710-LeTriNhan/Lab3/Election.sol\":703:708  _name */\n      dup4\n        /* \"Bai-Thuc-Hanh-DTH225710-LeTriNhan/Lab3/Election.sol\":674:714  Candidate(candidates.length, _name, \r... */\n      dup2\n      mstore\n      0x20\n      add\n        /* \"Bai-Thuc-Hanh-DTH225710-LeTriNhan/Lab3/Election.sol\":712:713  0 */\n      0x00\n        /* \"Bai-Thuc-Hanh-DTH225710-LeTriNhan/Lab3/Election.sol\":674:714  Candidate(candidates.length, _name, \r... */\n      dup2\n      mstore\n      pop\n        /* \"Bai-Thuc-Hanh-DTH225710-LeTriNhan/Lab3/Election.sol\":658:715  candidates.push(Candidate(candidates.length, _name, \r... */\n      swap1\n      dup1\n      0x01\n      dup2\n      sload\n      add\n      dup1\n      dup3\n      sstore\n      dup1\n      swap2\n      pop\n      pop\n      0x01\n      swap1\n      sub\n      swap1\n      0x00\n      mstore\n      keccak256(0x00, 0x20)\n      swap1\n      0x03\n      mul\n      add\n      0x00\n      swap1\n      swap2\n      swap1\n      swap2\n      swap1\n      swap2\n      pop\n      0x00\n      dup3\n      add\n      mload\n      dup2\n      0x00\n      add\n      sstore\n      0x20\n      dup3\n      add\n      mload\n      dup2\n      0x01\n      add\n      swap1\n      dup1\n      mload\n      swap1\n      0x20\n      add\n      swap1\n      tag_73\n      swap3\n      swap2\n      swap1\n      tag_74\n      jump\t// in\n    tag_73:\n      pop\n      0x40\n      dup3\n      add\n      mload\n      dup2\n      0x02\n      add\n      sstore\n      pop\n      pop\n        /* \"Bai-Thuc-Hanh-DTH225710-LeTriNhan/Lab3/Election.sol\":724:745  CandidateAdded(_name) */\n      0xf29562dad1599aea0ebb142466120aab326d5efa8f839df82a9c064bf78e8938\n        /* \"Bai-Thuc-Hanh-DTH225710-LeTriNhan/Lab3/Election.sol\":739:744  _name */\n      dup2\n        /* \"Bai-Thuc-Hanh-DTH225710-LeTriNhan/Lab3/Election.sol\":724:745  CandidateAdded(_name) */\n      mload(0x40)\n      tag_75\n      swap2\n      swap1\n      tag_76\n      jump\t// in\n    tag_75:\n      mload(0x40)\n      dup1\n      swap2\n      sub\n      swap1\n      log1\n        /* \"Bai-Thuc-Hanh-DTH225710-LeTriNhan/Lab3/Election.sol\":592:750  function addCandidate(string memory _name) public \r... */\n      pop\n      jump\t// out\n        /* \"Bai-Thuc-Hanh-DTH225710-LeTriNhan/Lab3/Election.sol\":98:118  address public owner */\n    tag_32:\n      0x00\n      dup1\n      sload\n      swap1\n      0x0100\n      exp\n      swap1\n      div\n      0xffffffffffffffffffffffffffffffffffffffff\n      and\n      dup2\n      jump\t// out\n        /* \"Bai-Thuc-Hanh-DTH225710-LeTriNhan/Lab3/Election.sol\":1063:1155  function getCandidatesCount() public view returns (uint) \r... */\n    tag_36:\n        /* \"Bai-Thuc-Hanh-DTH225710-LeTriNhan/Lab3/Election.sol\":1114:1118  uint */\n      0x00\n        /* \"Bai-Thuc-Hanh-DTH225710-LeTriNhan/Lab3/Election.sol\":1133:1143  candidates */\n      0x01\n        /* \"Bai-Thuc-Hanh-DTH225710-LeTriNhan/Lab3/Election.sol\":1133:1150  candidates.length */\n      dup1\n      sload\n      swap1\n      pop\n        /* \"Bai-Thuc-Hanh-DTH225710-LeTriNhan/Lab3/Election.sol\":1126:1150  return candidates.length */\n      swap1\n      pop\n        /* \"Bai-Thuc-Hanh-DTH225710-LeTriNhan/Lab3/Election.sol\":1063:1155  function getCandidatesCount() public view returns (uint) \r... */\n      swap1\n      jump\t// out\n        /* \"Bai-Thuc-Hanh-DTH225710-LeTriNhan/Lab3/Election.sol\":268:291  address[] public voters */\n    tag_41:\n      0x03\n      dup2\n      dup2\n      sload\n      dup2\n      lt\n      tag_78\n      jumpi\n      0x00\n      dup1\n      revert\n    tag_78:\n      swap1\n      0x00\n      mstore\n      keccak256(0x00, 0x20)\n      add\n      0x00\n      swap2\n      pop\n      sload\n      swap1\n      0x0100\n      exp\n      swap1\n      div\n      0xffffffffffffffffffffffffffffffffffffffff\n      and\n      dup2\n      jump\t// out\n        /* \"Bai-Thuc-Hanh-DTH225710-LeTriNhan/Lab3/Election.sol\":1158:1410  function resetElection() public onlyOwner {\r... */\n    tag_44:\n        /* \"Bai-Thuc-Hanh-DTH225710-LeTriNhan/Lab3/Election.sol\":342:347  owner */\n      0x00\n      dup1\n      sload\n      swap1\n      0x0100\n      exp\n      swap1\n      div\n      0xffffffffffffffffffffffffffffffffffffffff\n      and\n        /* \"Bai-Thuc-Hanh-DTH225710-LeTriNhan/Lab3/Election.sol\":328:347  msg.sender == owner */\n      0xffffffffffffffffffffffffffffffffffffffff\n      and\n        /* \"Bai-Thuc-Hanh-DTH225710-LeTriNhan/Lab3/Election.sol\":328:338  msg.sender */\n      caller\n        /* \"Bai-Thuc-Hanh-DTH225710-LeTriNhan/Lab3/Election.sol\":328:347  msg.sender == owner */\n      0xffffffffffffffffffffffffffffffffffffffff\n      and\n      eq\n        /* \"Bai-Thuc-Hanh-DTH225710-LeTriNhan/Lab3/Election.sol\":320:370  require(msg.sender == owner, \"Only owner allowed\") */\n      tag_81\n      jumpi\n      mload(0x40)\n      0x08c379a000000000000000000000000000000000000000000000000000000000\n      dup2\n      mstore\n      0x04\n      add\n      tag_82\n      swap1\n      tag_70\n      jump\t// in\n    tag_82:\n      mload(0x40)\n      dup1\n      swap2\n      sub\n      swap1\n      revert\n    tag_81:\n        /* \"Bai-Thuc-Hanh-DTH225710-LeTriNhan/Lab3/Election.sol\":1209:1215  uint i */\n      0x00\n        /* \"Bai-Thuc-Hanh-DTH225710-LeTriNhan/Lab3/Election.sol\":1204:1281  for (uint i = 0; i < voters.length; i++) {\r... */\n    tag_84:\n        /* \"Bai-Thuc-Hanh-DTH225710-LeTriNhan/Lab3/Election.sol\":1225:1231  voters */\n      0x03\n        /* \"Bai-Thuc-Hanh-DTH225710-LeTriNhan/Lab3/Election.sol\":1225:1238  voters.length */\n      dup1\n      sload\n      swap1\n      pop\n        /* \"Bai-Thuc-Hanh-DTH225710-LeTriNhan/Lab3/Election.sol\":1221:1222  i */\n      dup2\n        /* \"Bai-Thuc-Hanh-DTH225710-LeTriNhan/Lab3/Election.sol\":1221:1238  i < voters.length */\n      lt\n        /* \"Bai-Thuc-Hanh-DTH225710-LeTriNhan/Lab3/Election.sol\":1204:1281  for (uint i = 0; i < voters.length; i++) {\r... */\n      iszero\n      tag_85\n      jumpi\n        /* \"Bai-Thuc-Hanh-DTH225710-LeTriNhan/Lab3/Election.sol\":1271:1276  false */\n      0x00\n        /* \"Bai-Thuc-Hanh-DTH225710-LeTriNhan/Lab3/Election.sol\":1249:1257  hasVoted */\n      0x02\n        /* \"Bai-Thuc-Hanh-DTH225710-LeTriNhan/Lab3/Election.sol\":1249:1268  hasVoted[voters[i]] */\n      0x00\n        /* \"Bai-Thuc-Hanh-DTH225710-LeTriNhan/Lab3/Election.sol\":1258:1264  voters */\n      0x03\n        /* \"Bai-Thuc-Hanh-DTH225710-LeTriNhan/Lab3/Election.sol\":1265:1266  i */\n      dup5\n        /* \"Bai-Thuc-Hanh-DTH225710-LeTriNhan/Lab3/Election.sol\":1258:1267  voters[i] */\n      dup2\n      sload\n      dup2\n      lt\n      tag_87\n      jumpi\n      mstore(0x00, 0x4e487b7100000000000000000000000000000000000000000000000000000000)\n      mstore(0x04, 0x32)\n      revert(0x00, 0x24)\n    tag_87:\n      swap1\n      0x00\n      mstore\n      keccak256(0x00, 0x20)\n      add\n      0x00\n      swap1\n      sload\n      swap1\n      0x0100\n      exp\n      swap1\n      div\n      0xffffffffffffffffffffffffffffffffffffffff\n      and\n        /* \"Bai-Thuc-Hanh-DTH225710-LeTriNhan/Lab3/Election.sol\":1249:1268  hasVoted[voters[i]] */\n      0xffffffffffffffffffffffffffffffffffffffff\n      and\n      0xffffffffffffffffffffffffffffffffffffffff\n      and\n      dup2\n      mstore\n      0x20\n      add\n      swap1\n      dup2\n      mstore\n      0x20\n      add\n      0x00\n      keccak256\n      0x00\n        /* \"Bai-Thuc-Hanh-DTH225710-LeTriNhan/Lab3/Election.sol\":1249:1276  hasVoted[voters[i]] = false */\n      0x0100\n      exp\n      dup2\n      sload\n      dup2\n      0xff\n      mul\n      not\n      and\n      swap1\n      dup4\n      iszero\n      iszero\n      mul\n      or\n      swap1\n      sstore\n      pop\n        /* \"Bai-Thuc-Hanh-DTH225710-LeTriNhan/Lab3/Election.sol\":1240:1243  i++ */\n      dup1\n      dup1\n      tag_89\n      swap1\n      tag_56\n      jump\t// in\n    tag_89:\n      swap2\n      pop\n      pop\n        /* \"Bai-Thuc-Hanh-DTH225710-LeTriNhan/Lab3/Election.sol\":1204:1281  for (uint i = 0; i < voters.length; i++) {\r... */\n      jump(tag_84)\n    tag_85:\n      pop\n        /* \"Bai-Thuc-Hanh-DTH225710-LeTriNhan/Lab3/Election.sol\":1291:1297  voters */\n      0x03\n      0x00\n        /* \"Bai-Thuc-Hanh-DTH225710-LeTriNhan/Lab3/Election.sol\":1284:1297  delete voters */\n      tag_90\n      swap2\n      swap1\n      tag_91\n      jump\t// in\n    tag_90:\n        /* \"Bai-Thuc-Hanh-DTH225710-LeTriNhan/Lab3/Election.sol\":1306:1312  uint i */\n      0x00\n        /* \"Bai-Thuc-Hanh-DTH225710-LeTriNhan/Lab3/Election.sol\":1301:1382  for (uint i = 0; i < candidates.length; i++) {\r... */\n    tag_92:\n        /* \"Bai-Thuc-Hanh-DTH225710-LeTriNhan/Lab3/Election.sol\":1322:1332  candidates */\n      0x01\n        /* \"Bai-Thuc-Hanh-DTH225710-LeTriNhan/Lab3/Election.sol\":1322:1339  candidates.length */\n      dup1\n      sload\n      swap1\n      pop\n        /* \"Bai-Thuc-Hanh-DTH225710-LeTriNhan/Lab3/Election.sol\":1318:1319  i */\n      dup2\n        /* \"Bai-Thuc-Hanh-DTH225710-LeTriNhan/Lab3/Election.sol\":1318:1339  i < candidates.length */\n      lt\n        /* \"Bai-Thuc-Hanh-DTH225710-LeTriNhan/Lab3/Election.sol\":1301:1382  for (uint i = 0; i < candidates.length; i++) {\r... */\n      iszero\n      tag_93\n      jumpi\n        /* \"Bai-Thuc-Hanh-DTH225710-LeTriNhan/Lab3/Election.sol\":1376:1377  0 */\n      0x00\n        /* \"Bai-Thuc-Hanh-DTH225710-LeTriNhan/Lab3/Election.sol\":1350:1360  candidates */\n      0x01\n        /* \"Bai-Thuc-Hanh-DTH225710-LeTriNhan/Lab3/Election.sol\":1361:1362  i */\n      dup3\n        /* \"Bai-Thuc-Hanh-DTH225710-LeTriNhan/Lab3/Election.sol\":1350:1363  candidates[i] */\n      dup2\n      sload\n      dup2\n      lt\n      tag_95\n      jumpi\n      mstore(0x00, 0x4e487b7100000000000000000000000000000000000000000000000000000000)\n      mstore(0x04, 0x32)\n      revert(0x00, 0x24)\n    tag_95:\n      swap1\n      0x00\n      mstore\n      keccak256(0x00, 0x20)\n      swap1\n      0x03\n      mul\n      add\n        /* \"Bai-Thuc-Hanh-DTH225710-LeTriNhan/Lab3/Election.sol\":1350:1373  candidates[i].voteCount */\n      0x02\n      add\n        /* \"Bai-Thuc-Hanh-DTH225710-LeTriNhan/Lab3/Election.sol\":1350:1377  candidates[i].voteCount = 0 */\n      dup2\n      swap1\n      sstore\n      pop\n        /* \"Bai-Thuc-Hanh-DTH225710-LeTriNhan/Lab3/Election.sol\":1341:1344  i++ */\n      dup1\n      dup1\n      tag_97\n      swap1\n      tag_56\n      jump\t// in\n    tag_97:\n      swap2\n      pop\n      pop\n        /* \"Bai-Thuc-Hanh-DTH225710-LeTriNhan/Lab3/Election.sol\":1301:1382  for (uint i = 0; i < candidates.length; i++) {\r... */\n      jump(tag_92)\n    tag_93:\n      pop\n        /* \"Bai-Thuc-Hanh-DTH225710-LeTriNhan/Lab3/Election.sol\":1390:1405  ElectionReset() */\n      0x8d1085cd9eceaab0b77fd20c66dea55df08e5ef2d52859c2cb4a1e16ba9476c0\n      mload(0x40)\n      mload(0x40)\n      dup1\n      swap2\n      sub\n      swap1\n      log1\n        /* \"Bai-Thuc-Hanh-DTH225710-LeTriNhan/Lab3/Election.sol\":1158:1410  function resetElection() public onlyOwner {\r... */\n      jump\t// out\n    tag_74:\n      dup3\n      dup1\n      sload\n      tag_98\n      swap1\n      tag_62\n      jump\t// in\n    tag_98:\n      swap1\n      0x00\n      mstore\n      keccak256(0x00, 0x20)\n      swap1\n      0x1f\n      add\n      0x20\n      swap1\n      div\n      dup2\n      add\n      swap3\n      dup3\n      tag_100\n      jumpi\n      0x00\n      dup6\n      sstore\n      jump(tag_99)\n    tag_100:\n      dup3\n      0x1f\n      lt\n      tag_101\n      jumpi\n      dup1\n      mload\n      not(0xff)\n      and\n      dup4\n      dup1\n      add\n      or\n      dup6\n      sstore\n      jump(tag_99)\n    tag_101:\n      dup3\n      dup1\n      add\n      0x01\n      add\n      dup6\n      sstore\n      dup3\n      iszero\n      tag_99\n      jumpi\n      swap2\n      dup3\n      add\n    tag_102:\n      dup3\n      dup2\n      gt\n      iszero\n      tag_103\n      jumpi\n      dup3\n      mload\n      dup3\n      sstore\n      swap2\n      0x20\n      add\n      swap2\n      swap1\n      0x01\n      add\n      swap1\n      jump(tag_102)\n    tag_103:\n    tag_99:\n      pop\n      swap1\n      pop\n      tag_104\n      swap2\n      swap1\n      tag_105\n      jump\t// in\n    tag_104:\n      pop\n      swap1\n      jump\t// out\n    tag_91:\n      pop\n      dup1\n      sload\n      0x00\n      dup3\n      sstore\n      swap1\n      0x00\n      mstore\n      keccak256(0x00, 0x20)\n      swap1\n      dup2\n      add\n      swap1\n      tag_107\n      swap2\n      swap1\n      tag_105\n      jump\t// in\n    tag_107:\n      pop\n      jump\t// out\n    tag_105:\n    tag_108:\n      dup1\n      dup3\n      gt\n      iszero\n      tag_109\n      jumpi\n      0x00\n      dup2\n      0x00\n      swap1\n      sstore\n      pop\n      0x01\n      add\n      jump(tag_108)\n    tag_109:\n      pop\n      swap1\n      jump\t// out\n        /* \"#utility.yul\":7:351   */\n    tag_111:\n      0x00\n        /* \"#utility.yul\":110:175   */\n      tag_113\n        /* \"#utility.yul\":125:174   */\n      tag_114\n        /* \"#utility.yul\":167:173   */\n      dup5\n        /* \"#utility.yul\":125:174   */\n      tag_115\n      jump\t// in\n    tag_114:\n        /* \"#utility.yul\":110:175   */\n      tag_116\n      jump\t// in\n    tag_113:\n        /* \"#utility.yul\":101:175   */\n      swap1\n      pop\n        /* \"#utility.yul\":198:204   */\n      dup3\n        /* \"#utility.yul\":191:196   */\n      dup2\n        /* \"#utility.yul\":184:205   */\n      mstore\n        /* \"#utility.yul\":236:240   */\n      0x20\n        /* \"#utility.yul\":229:234   */\n      dup2\n        /* \"#utility.yul\":225:241   */\n      add\n        /* \"#utility.yul\":274:277   */\n      dup5\n        /* \"#utility.yul\":265:271   */\n      dup5\n        /* \"#utility.yul\":260:263   */\n      dup5\n        /* \"#utility.yul\":256:272   */\n      add\n        /* \"#utility.yul\":253:278   */\n      gt\n        /* \"#utility.yul\":250:252   */\n      iszero\n      tag_117\n      jumpi\n        /* \"#utility.yul\":291:292   */\n      0x00\n        /* \"#utility.yul\":288:289   */\n      dup1\n        /* \"#utility.yul\":281:293   */\n      revert\n        /* \"#utility.yul\":250:252   */\n    tag_117:\n        /* \"#utility.yul\":304:345   */\n      tag_118\n        /* \"#utility.yul\":338:344   */\n      dup5\n        /* \"#utility.yul\":333:336   */\n      dup3\n        /* \"#utility.yul\":328:331   */\n      dup6\n        /* \"#utility.yul\":304:345   */\n      tag_119\n      jump\t// in\n    tag_118:\n        /* \"#utility.yul\":91:351   */\n      pop\n      swap4\n      swap3\n      pop\n      pop\n      pop\n      jump\t// out\n        /* \"#utility.yul\":357:496   */\n    tag_120:\n      0x00\n        /* \"#utility.yul\":441:447   */\n      dup2\n        /* \"#utility.yul\":428:448   */\n      calldataload\n        /* \"#utility.yul\":419:448   */\n      swap1\n      pop\n        /* \"#utility.yul\":457:490   */\n      tag_122\n        /* \"#utility.yul\":484:489   */\n      dup2\n        /* \"#utility.yul\":457:490   */\n      tag_123\n      jump\t// in\n    tag_122:\n        /* \"#utility.yul\":409:496   */\n      swap3\n      swap2\n      pop\n      pop\n      jump\t// out\n        /* \"#utility.yul\":516:789   */\n    tag_124:\n      0x00\n        /* \"#utility.yul\":621:624   */\n      dup3\n        /* \"#utility.yul\":614:618   */\n      0x1f\n        /* \"#utility.yul\":606:612   */\n      dup4\n        /* \"#utility.yul\":602:619   */\n      add\n        /* \"#utility.yul\":598:625   */\n      slt\n        /* \"#utility.yul\":588:590   */\n      tag_126\n      jumpi\n        /* \"#utility.yul\":639:640   */\n      0x00\n        /* \"#utility.yul\":636:637   */\n      dup1\n        /* \"#utility.yul\":629:641   */\n      revert\n        /* \"#utility.yul\":588:590   */\n    tag_126:\n        /* \"#utility.yul\":679:685   */\n      dup2\n        /* \"#utility.yul\":666:686   */\n      calldataload\n        /* \"#utility.yul\":704:783   */\n      tag_127\n        /* \"#utility.yul\":779:782   */\n      dup5\n        /* \"#utility.yul\":771:777   */\n      dup3\n        /* \"#utility.yul\":764:768   */\n      0x20\n        /* \"#utility.yul\":756:762   */\n      dup7\n        /* \"#utility.yul\":752:769   */\n      add\n        /* \"#utility.yul\":704:783   */\n      tag_111\n      jump\t// in\n    tag_127:\n        /* \"#utility.yul\":695:783   */\n      swap2\n      pop\n        /* \"#utility.yul\":578:789   */\n      pop\n      swap3\n      swap2\n      pop\n      pop\n      jump\t// out\n        /* \"#utility.yul\":795:934   */\n    tag_128:\n      0x00\n        /* \"#utility.yul\":879:885   */\n      dup2\n        /* \"#utility.yul\":866:886   */\n      calldataload\n        /* \"#utility.yul\":857:886   */\n      swap1\n      pop\n        /* \"#utility.yul\":895:928   */\n      tag_130\n        /* \"#utility.yul\":922:927   */\n      dup2\n        /* \"#utility.yul\":895:928   */\n      tag_131\n      jump\t// in\n    tag_130:\n        /* \"#utility.yul\":847:934   */\n      swap3\n      swap2\n      pop\n      pop\n      jump\t// out\n        /* \"#utility.yul\":940:1202   */\n    tag_18:\n      0x00\n        /* \"#utility.yul\":1048:1050   */\n      0x20\n        /* \"#utility.yul\":1036:1045   */\n      dup3\n        /* \"#utility.yul\":1027:1034   */\n      dup5\n        /* \"#utility.yul\":1023:1046   */\n      sub\n        /* \"#utility.yul\":1019:1051   */\n      slt\n        /* \"#utility.yul\":1016:1018   */\n      iszero\n      tag_133\n      jumpi\n        /* \"#utility.yul\":1064:1065   */\n      0x00\n        /* \"#utility.yul\":1061:1062   */\n      dup1\n        /* \"#utility.yul\":1054:1066   */\n      revert\n        /* \"#utility.yul\":1016:1018   */\n    tag_133:\n        /* \"#utility.yul\":1107:1108   */\n      0x00\n        /* \"#utility.yul\":1132:1185   */\n      tag_134\n        /* \"#utility.yul\":1177:1184   */\n      dup5\n        /* \"#utility.yul\":1168:1174   */\n      dup3\n        /* \"#utility.yul\":1157:1166   */\n      dup6\n        /* \"#utility.yul\":1153:1175   */\n      add\n        /* \"#utility.yul\":1132:1185   */\n      tag_120\n      jump\t// in\n    tag_134:\n        /* \"#utility.yul\":1122:1185   */\n      swap2\n      pop\n        /* \"#utility.yul\":1078:1195   */\n      pop\n        /* \"#utility.yul\":1006:1202   */\n      swap3\n      swap2\n      pop\n      pop\n      jump\t// out\n        /* \"#utility.yul\":1208:1583   */\n    tag_29:\n      0x00\n        /* \"#utility.yul\":1326:1328   */\n      0x20\n        /* \"#utility.yul\":1314:1323   */\n      dup3\n        /* \"#utility.yul\":1305:1312   */\n      dup5\n        /* \"#utility.yul\":1301:1324   */\n      sub\n        /* \"#utility.yul\":1297:1329   */\n      slt\n        /* \"#utility.yul\":1294:1296   */\n      iszero\n      tag_136\n      jumpi\n        /* \"#utility.yul\":1342:1343   */\n      0x00\n        /* \"#utility.yul\":1339:1340   */\n      dup1\n        /* \"#utility.yul\":1332:1344   */\n      revert\n        /* \"#utility.yul\":1294:1296   */\n    tag_136:\n        /* \"#utility.yul\":1413:1414   */\n      0x00\n        /* \"#utility.yul\":1402:1411   */\n      dup3\n        /* \"#utility.yul\":1398:1415   */\n      add\n        /* \"#utility.yul\":1385:1416   */\n      calldataload\n        /* \"#utility.yul\":1443:1461   */\n      0xffffffffffffffff\n        /* \"#utility.yul\":1435:1441   */\n      dup2\n        /* \"#utility.yul\":1432:1462   */\n      gt\n        /* \"#utility.yul\":1429:1431   */\n      iszero\n      tag_137\n      jumpi\n        /* \"#utility.yul\":1475:1476   */\n      0x00\n        /* \"#utility.yul\":1472:1473   */\n      dup1\n        /* \"#utility.yul\":1465:1477   */\n      revert\n        /* \"#utility.yul\":1429:1431   */\n    tag_137:\n        /* \"#utility.yul\":1503:1566   */\n      tag_138\n        /* \"#utility.yul\":1558:1565   */\n      dup5\n        /* \"#utility.yul\":1549:1555   */\n      dup3\n        /* \"#utility.yul\":1538:1547   */\n      dup6\n        /* \"#utility.yul\":1534:1556   */\n      add\n        /* \"#utility.yul\":1503:1566   */\n      tag_124\n      jump\t// in\n    tag_138:\n        /* \"#utility.yul\":1493:1566   */\n      swap2\n      pop\n        /* \"#utility.yul\":1356:1576   */\n      pop\n        /* \"#utility.yul\":1284:1583   */\n      swap3\n      swap2\n      pop\n      pop\n      jump\t// out\n        /* \"#utility.yul\":1589:1851   */\n    tag_14:\n      0x00\n        /* \"#utility.yul\":1697:1699   */\n      0x20\n        /* \"#utility.yul\":1685:1694   */\n      dup3\n        /* \"#utility.yul\":1676:1683   */\n      dup5\n        /* \"#utility.yul\":1672:1695   */\n      sub\n        /* \"#utility.yul\":1668:1700   */\n      slt\n        /* \"#utility.yul\":1665:1667   */\n      iszero\n      tag_140\n      jumpi\n        /* \"#utility.yul\":1713:1714   */\n      0x00\n        /* \"#utility.yul\":1710:1711   */\n      dup1\n        /* \"#utility.yul\":1703:1715   */\n      revert\n        /* \"#utility.yul\":1665:1667   */\n    tag_140:\n        /* \"#utility.yul\":1756:1757   */\n      0x00\n        /* \"#utility.yul\":1781:1834   */\n      tag_141\n        /* \"#utility.yul\":1826:1833   */\n      dup5\n        /* \"#utility.yul\":1817:1823   */\n      dup3\n        /* \"#utility.yul\":1806:1815   */\n      dup6\n        /* \"#utility.yul\":1802:1824   */\n      add\n        /* \"#utility.yul\":1781:1834   */\n      tag_128\n      jump\t// in\n    tag_141:\n        /* \"#utility.yul\":1771:1834   */\n      swap2\n      pop\n        /* \"#utility.yul\":1727:1844   */\n      pop\n        /* \"#utility.yul\":1655:1851   */\n      swap3\n      swap2\n      pop\n      pop\n      jump\t// out\n        /* \"#utility.yul\":1857:1975   */\n    tag_142:\n        /* \"#utility.yul\":1944:1968   */\n      tag_144\n        /* \"#utility.yul\":1962:1967   */\n      dup2\n        /* \"#utility.yul\":1944:1968   */\n      tag_145\n      jump\t// in\n    tag_144:\n        /* \"#utility.yul\":1939:1942   */\n      dup3\n        /* \"#utility.yul\":1932:1969   */\n      mstore\n        /* \"#utility.yul\":1922:1975   */\n      pop\n      pop\n      jump\t// out\n        /* \"#utility.yul\":1981:2090   */\n    tag_146:\n        /* \"#utility.yul\":2062:2083   */\n      tag_148\n        /* \"#utility.yul\":2077:2082   */\n      dup2\n        /* \"#utility.yul\":2062:2083   */\n      tag_149\n      jump\t// in\n    tag_148:\n        /* \"#utility.yul\":2057:2060   */\n      dup3\n        /* \"#utility.yul\":2050:2084   */\n      mstore\n        /* \"#utility.yul\":2040:2090   */\n      pop\n      pop\n      jump\t// out\n        /* \"#utility.yul\":2096:2460   */\n    tag_150:\n      0x00\n        /* \"#utility.yul\":2212:2251   */\n      tag_152\n        /* \"#utility.yul\":2245:2250   */\n      dup3\n        /* \"#utility.yul\":2212:2251   */\n      tag_153\n      jump\t// in\n    tag_152:\n        /* \"#utility.yul\":2267:2338   */\n      tag_154\n        /* \"#utility.yul\":2331:2337   */\n      dup2\n        /* \"#utility.yul\":2326:2329   */\n      dup6\n        /* \"#utility.yul\":2267:2338   */\n      tag_155\n      jump\t// in\n    tag_154:\n        /* \"#utility.yul\":2260:2338   */\n      swap4\n      pop\n        /* \"#utility.yul\":2347:2399   */\n      tag_156\n        /* \"#utility.yul\":2392:2398   */\n      dup2\n        /* \"#utility.yul\":2387:2390   */\n      dup6\n        /* \"#utility.yul\":2380:2384   */\n      0x20\n        /* \"#utility.yul\":2373:2378   */\n      dup7\n        /* \"#utility.yul\":2369:2385   */\n      add\n        /* \"#utility.yul\":2347:2399   */\n      tag_157\n      jump\t// in\n    tag_156:\n        /* \"#utility.yul\":2424:2453   */\n      tag_158\n        /* \"#utility.yul\":2446:2452   */\n      dup2\n        /* \"#utility.yul\":2424:2453   */\n      tag_159\n      jump\t// in\n    tag_158:\n        /* \"#utility.yul\":2419:2422   */\n      dup5\n        /* \"#utility.yul\":2415:2454   */\n      add\n        /* \"#utility.yul\":2408:2454   */\n      swap2\n      pop\n        /* \"#utility.yul\":2188:2460   */\n      pop\n      swap3\n      swap2\n      pop\n      pop\n      jump\t// out\n        /* \"#utility.yul\":2466:2777   */\n    tag_160:\n      0x00\n        /* \"#utility.yul\":2629:2696   */\n      tag_162\n        /* \"#utility.yul\":2693:2695   */\n      0x0d\n        /* \"#utility.yul\":2688:2691   */\n      dup4\n        /* \"#utility.yul\":2629:2696   */\n      tag_155\n      jump\t// in\n    tag_162:\n        /* \"#utility.yul\":2622:2696   */\n      swap2\n      pop\n        /* \"#utility.yul\":2726:2741   */\n      0x416c726561647920766f74656400000000000000000000000000000000000000\n        /* \"#utility.yul\":2722:2723   */\n      0x00\n        /* \"#utility.yul\":2717:2720   */\n      dup4\n        /* \"#utility.yul\":2713:2724   */\n      add\n        /* \"#utility.yul\":2706:2742   */\n      mstore\n        /* \"#utility.yul\":2768:2770   */\n      0x20\n        /* \"#utility.yul\":2763:2766   */\n      dup3\n        /* \"#utility.yul\":2759:2771   */\n      add\n        /* \"#utility.yul\":2752:2771   */\n      swap1\n      pop\n        /* \"#utility.yul\":2612:2777   */\n      swap2\n      swap1\n      pop\n      jump\t// out\n        /* \"#utility.yul\":2783:3098   */\n    tag_163:\n      0x00\n        /* \"#utility.yul\":2946:3013   */\n      tag_165\n        /* \"#utility.yul\":3010:3012   */\n      0x11\n        /* \"#utility.yul\":3005:3008   */\n      dup4\n        /* \"#utility.yul\":2946:3013   */\n      tag_155\n      jump\t// in\n    tag_165:\n        /* \"#utility.yul\":2939:3013   */\n      swap2\n      pop\n        /* \"#utility.yul\":3043:3062   */\n      0x496e76616c69642063616e646964617465000000000000000000000000000000\n        /* \"#utility.yul\":3039:3040   */\n      0x00\n        /* \"#utility.yul\":3034:3037   */\n      dup4\n        /* \"#utility.yul\":3030:3041   */\n      add\n        /* \"#utility.yul\":3023:3063   */\n      mstore\n        /* \"#utility.yul\":3089:3091   */\n      0x20\n        /* \"#utility.yul\":3084:3087   */\n      dup3\n        /* \"#utility.yul\":3080:3092   */\n      add\n        /* \"#utility.yul\":3073:3092   */\n      swap1\n      pop\n        /* \"#utility.yul\":2929:3098   */\n      swap2\n      swap1\n      pop\n      jump\t// out\n        /* \"#utility.yul\":3104:3420   */\n    tag_166:\n      0x00\n        /* \"#utility.yul\":3267:3334   */\n      tag_168\n        /* \"#utility.yul\":3331:3333   */\n      0x12\n        /* \"#utility.yul\":3326:3329   */\n      dup4\n        /* \"#utility.yul\":3267:3334   */\n      tag_155\n      jump\t// in\n    tag_168:\n        /* \"#utility.yul\":3260:3334   */\n      swap2\n      pop\n        /* \"#utility.yul\":3364:3384   */\n      0x4f6e6c79206f776e657220616c6c6f7765640000000000000000000000000000\n        /* \"#utility.yul\":3360:3361   */\n      0x00\n        /* \"#utility.yul\":3355:3358   */\n      dup4\n        /* \"#utility.yul\":3351:3362   */\n      add\n        /* \"#utility.yul\":3344:3385   */\n      mstore\n        /* \"#utility.yul\":3411:3413   */\n      0x20\n        /* \"#utility.yul\":3406:3409   */\n      dup3\n        /* \"#utility.yul\":3402:3414   */\n      add\n        /* \"#utility.yul\":3395:3414   */\n      swap1\n      pop\n        /* \"#utility.yul\":3250:3420   */\n      swap2\n      swap1\n      pop\n      jump\t// out\n        /* \"#utility.yul\":3426:3544   */\n    tag_169:\n        /* \"#utility.yul\":3513:3537   */\n      tag_171\n        /* \"#utility.yul\":3531:3536   */\n      dup2\n        /* \"#utility.yul\":3513:3537   */\n      tag_172\n      jump\t// in\n    tag_171:\n        /* \"#utility.yul\":3508:3511   */\n      dup3\n        /* \"#utility.yul\":3501:3538   */\n      mstore\n        /* \"#utility.yul\":3491:3544   */\n      pop\n      pop\n      jump\t// out\n        /* \"#utility.yul\":3550:3772   */\n    tag_34:\n      0x00\n        /* \"#utility.yul\":3681:3683   */\n      0x20\n        /* \"#utility.yul\":3670:3679   */\n      dup3\n        /* \"#utility.yul\":3666:3684   */\n      add\n        /* \"#utility.yul\":3658:3684   */\n      swap1\n      pop\n        /* \"#utility.yul\":3694:3765   */\n      tag_174\n        /* \"#utility.yul\":3762:3763   */\n      0x00\n        /* \"#utility.yul\":3751:3760   */\n      dup4\n        /* \"#utility.yul\":3747:3764   */\n      add\n        /* \"#utility.yul\":3738:3744   */\n      dup5\n        /* \"#utility.yul\":3694:3765   */\n      tag_142\n      jump\t// in\n    tag_174:\n        /* \"#utility.yul\":3648:3772   */\n      swap3\n      swap2\n      pop\n      pop\n      jump\t// out\n        /* \"#utility.yul\":3778:4110   */\n    tag_58:\n      0x00\n        /* \"#utility.yul\":3937:3939   */\n      0x40\n        /* \"#utility.yul\":3926:3935   */\n      dup3\n        /* \"#utility.yul\":3922:3940   */\n      add\n        /* \"#utility.yul\":3914:3940   */\n      swap1\n      pop\n        /* \"#utility.yul\":3950:4021   */\n      tag_176\n        /* \"#utility.yul\":4018:4019   */\n      0x00\n        /* \"#utility.yul\":4007:4016   */\n      dup4\n        /* \"#utility.yul\":4003:4020   */\n      add\n        /* \"#utility.yul\":3994:4000   */\n      dup6\n        /* \"#utility.yul\":3950:4021   */\n      tag_142\n      jump\t// in\n    tag_176:\n        /* \"#utility.yul\":4031:4103   */\n      tag_177\n        /* \"#utility.yul\":4099:4101   */\n      0x20\n        /* \"#utility.yul\":4088:4097   */\n      dup4\n        /* \"#utility.yul\":4084:4102   */\n      add\n        /* \"#utility.yul\":4075:4081   */\n      dup5\n        /* \"#utility.yul\":4031:4103   */\n      tag_169\n      jump\t// in\n    tag_177:\n        /* \"#utility.yul\":3904:4110   */\n      swap4\n      swap3\n      pop\n      pop\n      pop\n      jump\t// out\n        /* \"#utility.yul\":4116:4326   */\n    tag_21:\n      0x00\n        /* \"#utility.yul\":4241:4243   */\n      0x20\n        /* \"#utility.yul\":4230:4239   */\n      dup3\n        /* \"#utility.yul\":4226:4244   */\n      add\n        /* \"#utility.yul\":4218:4244   */\n      swap1\n      pop\n        /* \"#utility.yul\":4254:4319   */\n      tag_179\n        /* \"#utility.yul\":4316:4317   */\n      0x00\n        /* \"#utility.yul\":4305:4314   */\n      dup4\n        /* \"#utility.yul\":4301:4318   */\n      add\n        /* \"#utility.yul\":4292:4298   */\n      dup5\n        /* \"#utility.yul\":4254:4319   */\n      tag_146\n      jump\t// in\n    tag_179:\n        /* \"#utility.yul\":4208:4326   */\n      swap3\n      swap2\n      pop\n      pop\n      jump\t// out\n        /* \"#utility.yul\":4332:4645   */\n    tag_76:\n      0x00\n        /* \"#utility.yul\":4483:4485   */\n      0x20\n        /* \"#utility.yul\":4472:4481   */\n      dup3\n        /* \"#utility.yul\":4468:4486   */\n      add\n        /* \"#utility.yul\":4460:4486   */\n      swap1\n      pop\n        /* \"#utility.yul\":4532:4541   */\n      dup2\n        /* \"#utility.yul\":4526:4530   */\n      dup2\n        /* \"#utility.yul\":4522:4542   */\n      sub\n        /* \"#utility.yul\":4518:4519   */\n      0x00\n        /* \"#utility.yul\":4507:4516   */\n      dup4\n        /* \"#utility.yul\":4503:4520   */\n      add\n        /* \"#utility.yul\":4496:4543   */\n      mstore\n        /* \"#utility.yul\":4560:4638   */\n      tag_181\n        /* \"#utility.yul\":4633:4637   */\n      dup2\n        /* \"#utility.yul\":4624:4630   */\n      dup5\n        /* \"#utility.yul\":4560:4638   */\n      tag_150\n      jump\t// in\n    tag_181:\n        /* \"#utility.yul\":4552:4638   */\n      swap1\n      pop\n        /* \"#utility.yul\":4450:4645   */\n      swap3\n      swap2\n      pop\n      pop\n      jump\t// out\n        /* \"#utility.yul\":4651:5070   */\n    tag_48:\n      0x00\n        /* \"#utility.yul\":4855:4857   */\n      0x20\n        /* \"#utility.yul\":4844:4853   */\n      dup3\n        /* \"#utility.yul\":4840:4858   */\n      add\n        /* \"#utility.yul\":4832:4858   */\n      swap1\n      pop\n        /* \"#utility.yul\":4904:4913   */\n      dup2\n        /* \"#utility.yul\":4898:4902   */\n      dup2\n        /* \"#utility.yul\":4894:4914   */\n      sub\n        /* \"#utility.yul\":4890:4891   */\n      0x00\n        /* \"#utility.yul\":4879:4888   */\n      dup4\n        /* \"#utility.yul\":4875:4892   */\n      add\n        /* \"#utility.yul\":4868:4915   */\n      mstore\n        /* \"#utility.yul\":4932:5063   */\n      tag_183\n        /* \"#utility.yul\":5058:5062   */\n      dup2\n        /* \"#utility.yul\":4932:5063   */\n      tag_160\n      jump\t// in\n    tag_183:\n        /* \"#utility.yul\":4924:5063   */\n      swap1\n      pop\n        /* \"#utility.yul\":4822:5070   */\n      swap2\n      swap1\n      pop\n      jump\t// out\n        /* \"#utility.yul\":5076:5495   */\n    tag_51:\n      0x00\n        /* \"#utility.yul\":5280:5282   */\n      0x20\n        /* \"#utility.yul\":5269:5278   */\n      dup3\n        /* \"#utility.yul\":5265:5283   */\n      add\n        /* \"#utility.yul\":5257:5283   */\n      swap1\n      pop\n        /* \"#utility.yul\":5329:5338   */\n      dup2\n        /* \"#utility.yul\":5323:5327   */\n      dup2\n        /* \"#utility.yul\":5319:5339   */\n      sub\n        /* \"#utility.yul\":5315:5316   */\n      0x00\n        /* \"#utility.yul\":5304:5313   */\n      dup4\n        /* \"#utility.yul\":5300:5317   */\n      add\n        /* \"#utility.yul\":5293:5340   */\n      mstore\n        /* \"#utility.yul\":5357:5488   */\n      tag_185\n        /* \"#utility.yul\":5483:5487   */\n      dup2\n        /* \"#utility.yul\":5357:5488   */\n      tag_163\n      jump\t// in\n    tag_185:\n        /* \"#utility.yul\":5349:5488   */\n      swap1\n      pop\n        /* \"#utility.yul\":5247:5495   */\n      swap2\n      swap1\n      pop\n      jump\t// out\n        /* \"#utility.yul\":5501:5920   */\n    tag_70:\n      0x00\n        /* \"#utility.yul\":5705:5707   */\n      0x20\n        /* \"#utility.yul\":5694:5703   */\n      dup3\n        /* \"#utility.yul\":5690:5708   */\n      add\n        /* \"#utility.yul\":5682:5708   */\n      swap1\n      pop\n        /* \"#utility.yul\":5754:5763   */\n      dup2\n        /* \"#utility.yul\":5748:5752   */\n      dup2\n        /* \"#utility.yul\":5744:5764   */\n      sub\n        /* \"#utility.yul\":5740:5741   */\n      0x00\n        /* \"#utility.yul\":5729:5738   */\n      dup4\n        /* \"#utility.yul\":5725:5742   */\n      add\n        /* \"#utility.yul\":5718:5765   */\n      mstore\n        /* \"#utility.yul\":5782:5913   */\n      tag_187\n        /* \"#utility.yul\":5908:5912   */\n      dup2\n        /* \"#utility.yul\":5782:5913   */\n      tag_166\n      jump\t// in\n    tag_187:\n        /* \"#utility.yul\":5774:5913   */\n      swap1\n      pop\n        /* \"#utility.yul\":5672:5920   */\n      swap2\n      swap1\n      pop\n      jump\t// out\n        /* \"#utility.yul\":5926:6148   */\n    tag_38:\n      0x00\n        /* \"#utility.yul\":6057:6059   */\n      0x20\n        /* \"#utility.yul\":6046:6055   */\n      dup3\n        /* \"#utility.yul\":6042:6060   */\n      add\n        /* \"#utility.yul\":6034:6060   */\n      swap1\n      pop\n        /* \"#utility.yul\":6070:6141   */\n      tag_189\n        /* \"#utility.yul\":6138:6139   */\n      0x00\n        /* \"#utility.yul\":6127:6136   */\n      dup4\n        /* \"#utility.yul\":6123:6140   */\n      add\n        /* \"#utility.yul\":6114:6120   */\n      dup5\n        /* \"#utility.yul\":6070:6141   */\n      tag_169\n      jump\t// in\n    tag_189:\n        /* \"#utility.yul\":6024:6148   */\n      swap3\n      swap2\n      pop\n      pop\n      jump\t// out\n        /* \"#utility.yul\":6154:6687   */\n    tag_26:\n      0x00\n        /* \"#utility.yul\":6361:6363   */\n      0x60\n        /* \"#utility.yul\":6350:6359   */\n      dup3\n        /* \"#utility.yul\":6346:6364   */\n      add\n        /* \"#utility.yul\":6338:6364   */\n      swap1\n      pop\n        /* \"#utility.yul\":6374:6445   */\n      tag_191\n        /* \"#utility.yul\":6442:6443   */\n      0x00\n        /* \"#utility.yul\":6431:6440   */\n      dup4\n        /* \"#utility.yul\":6427:6444   */\n      add\n        /* \"#utility.yul\":6418:6424   */\n      dup7\n        /* \"#utility.yul\":6374:6445   */\n      tag_169\n      jump\t// in\n    tag_191:\n        /* \"#utility.yul\":6492:6501   */\n      dup2\n        /* \"#utility.yul\":6486:6490   */\n      dup2\n        /* \"#utility.yul\":6482:6502   */\n      sub\n        /* \"#utility.yul\":6477:6479   */\n      0x20\n        /* \"#utility.yul\":6466:6475   */\n      dup4\n        /* \"#utility.yul\":6462:6480   */\n      add\n        /* \"#utility.yul\":6455:6503   */\n      mstore\n        /* \"#utility.yul\":6520:6598   */\n      tag_192\n        /* \"#utility.yul\":6593:6597   */\n      dup2\n        /* \"#utility.yul\":6584:6590   */\n      dup6\n        /* \"#utility.yul\":6520:6598   */\n      tag_150\n      jump\t// in\n    tag_192:\n        /* \"#utility.yul\":6512:6598   */\n      swap1\n      pop\n        /* \"#utility.yul\":6608:6680   */\n      tag_193\n        /* \"#utility.yul\":6676:6678   */\n      0x40\n        /* \"#utility.yul\":6665:6674   */\n      dup4\n        /* \"#utility.yul\":6661:6679   */\n      add\n        /* \"#utility.yul\":6652:6658   */\n      dup5\n        /* \"#utility.yul\":6608:6680   */\n      tag_169\n      jump\t// in\n    tag_193:\n        /* \"#utility.yul\":6328:6687   */\n      swap5\n      swap4\n      pop\n      pop\n      pop\n      pop\n      jump\t// out\n        /* \"#utility.yul\":6693:6976   */\n    tag_116:\n      0x00\n        /* \"#utility.yul\":6759:6761   */\n      0x40\n        /* \"#utility.yul\":6753:6762   */\n      mload\n        /* \"#utility.yul\":6743:6762   */\n      swap1\n      pop\n        /* \"#utility.yul\":6801:6805   */\n      dup2\n        /* \"#utility.yul\":6793:6799   */\n      dup2\n        /* \"#utility.yul\":6789:6806   */\n      add\n        /* \"#utility.yul\":6908:6914   */\n      dup2\n        /* \"#utility.yul\":6896:6906   */\n      dup2\n        /* \"#utility.yul\":6893:6915   */\n      lt\n        /* \"#utility.yul\":6872:6890   */\n      0xffffffffffffffff\n        /* \"#utility.yul\":6860:6870   */\n      dup3\n        /* \"#utility.yul\":6857:6891   */\n      gt\n        /* \"#utility.yul\":6854:6916   */\n      or\n        /* \"#utility.yul\":6851:6853   */\n      iszero\n      tag_195\n      jumpi\n        /* \"#utility.yul\":6919:6937   */\n      tag_196\n      tag_197\n      jump\t// in\n    tag_196:\n        /* \"#utility.yul\":6851:6853   */\n    tag_195:\n        /* \"#utility.yul\":6959:6969   */\n      dup1\n        /* \"#utility.yul\":6955:6957   */\n      0x40\n        /* \"#utility.yul\":6948:6970   */\n      mstore\n        /* \"#utility.yul\":6733:6976   */\n      pop\n      swap2\n      swap1\n      pop\n      jump\t// out\n        /* \"#utility.yul\":6982:7314   */\n    tag_115:\n      0x00\n        /* \"#utility.yul\":7134:7152   */\n      0xffffffffffffffff\n        /* \"#utility.yul\":7126:7132   */\n      dup3\n        /* \"#utility.yul\":7123:7153   */\n      gt\n        /* \"#utility.yul\":7120:7122   */\n      iszero\n      tag_199\n      jumpi\n        /* \"#utility.yul\":7156:7174   */\n      tag_200\n      tag_197\n      jump\t// in\n    tag_200:\n        /* \"#utility.yul\":7120:7122   */\n    tag_199:\n        /* \"#utility.yul\":7241:7245   */\n      0x1f\n        /* \"#utility.yul\":7237:7246   */\n      not\n        /* \"#utility.yul\":7230:7234   */\n      0x1f\n        /* \"#utility.yul\":7222:7228   */\n      dup4\n        /* \"#utility.yul\":7218:7235   */\n      add\n        /* \"#utility.yul\":7214:7247   */\n      and\n        /* \"#utility.yul\":7206:7247   */\n      swap1\n      pop\n        /* \"#utility.yul\":7302:7306   */\n      0x20\n        /* \"#utility.yul\":7296:7300   */\n      dup2\n        /* \"#utility.yul\":7292:7307   */\n      add\n        /* \"#utility.yul\":7284:7307   */\n      swap1\n      pop\n        /* \"#utility.yul\":7049:7314   */\n      swap2\n      swap1\n      pop\n      jump\t// out\n        /* \"#utility.yul\":7320:7419   */\n    tag_153:\n      0x00\n        /* \"#utility.yul\":7406:7411   */\n      dup2\n        /* \"#utility.yul\":7400:7412   */\n      mload\n        /* \"#utility.yul\":7390:7412   */\n      swap1\n      pop\n        /* \"#utility.yul\":7379:7419   */\n      swap2\n      swap1\n      pop\n      jump\t// out\n        /* \"#utility.yul\":7425:7594   */\n    tag_155:\n      0x00\n        /* \"#utility.yul\":7543:7549   */\n      dup3\n        /* \"#utility.yul\":7538:7541   */\n      dup3\n        /* \"#utility.yul\":7531:7550   */\n      mstore\n        /* \"#utility.yul\":7583:7587   */\n      0x20\n        /* \"#utility.yul\":7578:7581   */\n      dup3\n        /* \"#utility.yul\":7574:7588   */\n      add\n        /* \"#utility.yul\":7559:7588   */\n      swap1\n      pop\n        /* \"#utility.yul\":7521:7594   */\n      swap3\n      swap2\n      pop\n      pop\n      jump\t// out\n        /* \"#utility.yul\":7600:7696   */\n    tag_145:\n      0x00\n        /* \"#utility.yul\":7666:7690   */\n      tag_204\n        /* \"#utility.yul\":7684:7689   */\n      dup3\n        /* \"#utility.yul\":7666:7690   */\n      tag_205\n      jump\t// in\n    tag_204:\n        /* \"#utility.yul\":7655:7690   */\n      swap1\n      pop\n        /* \"#utility.yul\":7645:7696   */\n      swap2\n      swap1\n      pop\n      jump\t// out\n        /* \"#utility.yul\":7702:7792   */\n    tag_149:\n      0x00\n        /* \"#utility.yul\":7779:7784   */\n      dup2\n        /* \"#utility.yul\":7772:7785   */\n      iszero\n        /* \"#utility.yul\":7765:7786   */\n      iszero\n        /* \"#utility.yul\":7754:7786   */\n      swap1\n      pop\n        /* \"#utility.yul\":7744:7792   */\n      swap2\n      swap1\n      pop\n      jump\t// out\n        /* \"#utility.yul\":7798:7924   */\n    tag_205:\n      0x00\n        /* \"#utility.yul\":7875:7917   */\n      0xffffffffffffffffffffffffffffffffffffffff\n        /* \"#utility.yul\":7868:7873   */\n      dup3\n        /* \"#utility.yul\":7864:7918   */\n      and\n        /* \"#utility.yul\":7853:7918   */\n      swap1\n      pop\n        /* \"#utility.yul\":7843:7924   */\n      swap2\n      swap1\n      pop\n      jump\t// out\n        /* \"#utility.yul\":7930:8007   */\n    tag_172:\n      0x00\n        /* \"#utility.yul\":7996:8001   */\n      dup2\n        /* \"#utility.yul\":7985:8001   */\n      swap1\n      pop\n        /* \"#utility.yul\":7975:8007   */\n      swap2\n      swap1\n      pop\n      jump\t// out\n        /* \"#utility.yul\":8013:8167   */\n    tag_119:\n        /* \"#utility.yul\":8097:8103   */\n      dup3\n        /* \"#utility.yul\":8092:8095   */\n      dup2\n        /* \"#utility.yul\":8087:8090   */\n      dup4\n        /* \"#utility.yul\":8074:8104   */\n      calldatacopy\n        /* \"#utility.yul\":8159:8160   */\n      0x00\n        /* \"#utility.yul\":8150:8156   */\n      dup4\n        /* \"#utility.yul\":8145:8148   */\n      dup4\n        /* \"#utility.yul\":8141:8157   */\n      add\n        /* \"#utility.yul\":8134:8161   */\n      mstore\n        /* \"#utility.yul\":8064:8167   */\n      pop\n      pop\n      pop\n      jump\t// out\n        /* \"#utility.yul\":8173:8480   */\n    tag_157:\n        /* \"#utility.yul\":8241:8242   */\n      0x00\n        /* \"#utility.yul\":8251:8364   */\n    tag_211:\n        /* \"#utility.yul\":8265:8271   */\n      dup4\n        /* \"#utility.yul\":8262:8263   */\n      dup2\n        /* \"#utility.yul\":8259:8272   */\n      lt\n        /* \"#utility.yul\":8251:8364   */\n      iszero\n      tag_213\n      jumpi\n        /* \"#utility.yul\":8350:8351   */\n      dup1\n        /* \"#utility.yul\":8345:8348   */\n      dup3\n        /* \"#utility.yul\":8341:8352   */\n      add\n        /* \"#utility.yul\":8335:8353   */\n      mload\n        /* \"#utility.yul\":8331:8332   */\n      dup2\n        /* \"#utility.yul\":8326:8329   */\n      dup5\n        /* \"#utility.yul\":8322:8333   */\n      add\n        /* \"#utility.yul\":8315:8354   */\n      mstore\n        /* \"#utility.yul\":8287:8289   */\n      0x20\n        /* \"#utility.yul\":8284:8285   */\n      dup2\n        /* \"#utility.yul\":8280:8290   */\n      add\n        /* \"#utility.yul\":8275:8290   */\n      swap1\n      pop\n        /* \"#utility.yul\":8251:8364   */\n      jump(tag_211)\n    tag_213:\n        /* \"#utility.yul\":8382:8388   */\n      dup4\n        /* \"#utility.yul\":8379:8380   */\n      dup2\n        /* \"#utility.yul\":8376:8389   */\n      gt\n        /* \"#utility.yul\":8373:8375   */\n      iszero\n      tag_214\n      jumpi\n        /* \"#utility.yul\":8462:8463   */\n      0x00\n        /* \"#utility.yul\":8453:8459   */\n      dup5\n        /* \"#utility.yul\":8448:8451   */\n      dup5\n        /* \"#utility.yul\":8444:8460   */\n      add\n        /* \"#utility.yul\":8437:8464   */\n      mstore\n        /* \"#utility.yul\":8373:8375   */\n    tag_214:\n        /* \"#utility.yul\":8222:8480   */\n      pop\n      pop\n      pop\n      pop\n      jump\t// out\n        /* \"#utility.yul\":8486:8806   */\n    tag_62:\n      0x00\n        /* \"#utility.yul\":8567:8568   */\n      0x02\n        /* \"#utility.yul\":8561:8565   */\n      dup3\n        /* \"#utility.yul\":8557:8569   */\n      div\n        /* \"#utility.yul\":8547:8569   */\n      swap1\n      pop\n        /* \"#utility.yul\":8614:8615   */\n      0x01\n        /* \"#utility.yul\":8608:8612   */\n      dup3\n        /* \"#utility.yul\":8604:8616   */\n      and\n        /* \"#utility.yul\":8635:8653   */\n      dup1\n        /* \"#utility.yul\":8625:8627   */\n      tag_216\n      jumpi\n        /* \"#utility.yul\":8691:8695   */\n      0x7f\n        /* \"#utility.yul\":8683:8689   */\n      dup3\n        /* \"#utility.yul\":8679:8696   */\n      and\n        /* \"#utility.yul\":8669:8696   */\n      swap2\n      pop\n        /* \"#utility.yul\":8625:8627   */\n    tag_216:\n        /* \"#utility.yul\":8753:8755   */\n      0x20\n        /* \"#utility.yul\":8745:8751   */\n      dup3\n        /* \"#utility.yul\":8742:8756   */\n      lt\n        /* \"#utility.yul\":8722:8740   */\n      dup2\n        /* \"#utility.yul\":8719:8757   */\n      eq\n        /* \"#utility.yul\":8716:8718   */\n      iszero\n      tag_217\n      jumpi\n        /* \"#utility.yul\":8772:8790   */\n      tag_218\n      tag_219\n      jump\t// in\n    tag_218:\n        /* \"#utility.yul\":8716:8718   */\n    tag_217:\n        /* \"#utility.yul\":8537:8806   */\n      pop\n      swap2\n      swap1\n      pop\n      jump\t// out\n        /* \"#utility.yul\":8812:9045   */\n    tag_56:\n      0x00\n        /* \"#utility.yul\":8874:8898   */\n      tag_221\n        /* \"#utility.yul\":8892:8897   */\n      dup3\n        /* \"#utility.yul\":8874:8898   */\n      tag_172\n      jump\t// in\n    tag_221:\n        /* \"#utility.yul\":8865:8898   */\n      swap2\n      pop\n        /* \"#utility.yul\":8920:8986   */\n      0xffffffffffffffffffffffffffffffffffffffffffffffffffffffffffffffff\n        /* \"#utility.yul\":8913:8918   */\n      dup3\n        /* \"#utility.yul\":8910:8987   */\n      eq\n        /* \"#utility.yul\":8907:8909   */\n      iszero\n      tag_222\n      jumpi\n        /* \"#utility.yul\":8990:9008   */\n      tag_223\n      tag_224\n      jump\t// in\n    tag_223:\n        /* \"#utility.yul\":8907:8909   */\n    tag_222:\n        /* \"#utility.yul\":9037:9038   */\n      0x01\n        /* \"#utility.yul\":9030:9035   */\n      dup3\n        /* \"#utility.yul\":9026:9039   */\n      add\n        /* \"#utility.yul\":9019:9039   */\n      swap1\n      pop\n        /* \"#utility.yul\":8855:9045   */\n      swap2\n      swap1\n      pop\n      jump\t// out\n        /* \"#utility.yul\":9051:9231   */\n    tag_224:\n        /* \"#utility.yul\":9099:9176   */\n      0x4e487b7100000000000000000000000000000000000000000000000000000000\n        /* \"#utility.yul\":9096:9097   */\n      0x00\n        /* \"#utility.yul\":9089:9177   */\n      mstore\n        /* \"#utility.yul\":9196:9200   */\n      0x11\n        /* \"#utility.yul\":9193:9194   */\n      0x04\n        /* \"#utility.yul\":9186:9201   */\n      mstore\n        /* \"#utility.yul\":9220:9224   */\n      0x24\n        /* \"#utility.yul\":9217:9218   */\n      0x00\n        /* \"#utility.yul\":9210:9225   */\n      revert\n        /* \"#utility.yul\":9237:9417   */\n    tag_219:\n        /* \"#utility.yul\":9285:9362   */\n      0x4e487b7100000000000000000000000000000000000000000000000000000000\n        /* \"#utility.yul\":9282:9283   */\n      0x00\n        /* \"#utility.yul\":9275:9363   */\n      mstore\n        /* \"#utility.yul\":9382:9386   */\n      0x22\n        /* \"#utility.yul\":9379:9380   */\n      0x04\n        /* \"#utility.yul\":9372:9387   */\n      mstore\n        /* \"#utility.yul\":9406:9410   */\n      0x24\n        /* \"#utility.yul\":9403:9404   */\n      0x00\n        /* \"#utility.yul\":9396:9411   */\n      revert\n        /* \"#utility.yul\":9423:9603   */\n    tag_197:\n        /* \"#utility.yul\":9471:9548   */\n      0x4e487b7100000000000000000000000000000000000000000000000000000000\n        /* \"#utility.yul\":9468:9469   */\n      0x00\n        /* \"#utility.yul\":9461:9549   */\n      mstore\n        /* \"#utility.yul\":9568:9572   */\n      0x41\n        /* \"#utility.yul\":9565:9566   */\n      0x04\n        /* \"#utility.yul\":9558:9573   */\n      mstore\n        /* \"#utility.yul\":9592:9596   */\n      0x24\n        /* \"#utility.yul\":9589:9590   */\n      0x00\n        /* \"#utility.yul\":9582:9597   */\n      revert\n        /* \"#utility.yul\":9609:9711   */\n    tag_159:\n      0x00\n        /* \"#utility.yul\":9701:9703   */\n      0x1f\n        /* \"#utility.yul\":9697:9704   */\n      not\n        /* \"#utility.yul\":9692:9694   */\n      0x1f\n        /* \"#utility.yul\":9685:9690   */\n      dup4\n        /* \"#utility.yul\":9681:9695   */\n      add\n        /* \"#utility.yul\":9677:9705   */\n      and\n        /* \"#utility.yul\":9667:9705   */\n      swap1\n      pop\n        /* \"#utility.yul\":9657:9711   */\n      swap2\n      swap1\n      pop\n      jump\t// out\n        /* \"#utility.yul\":9717:9839   */\n    tag_123:\n        /* \"#utility.yul\":9790:9814   */\n      tag_230\n        /* \"#utility.yul\":9808:9813   */\n      dup2\n        /* \"#utility.yul\":9790:9814   */\n      tag_145\n      jump\t// in\n    tag_230:\n        /* \"#utility.yul\":9783:9788   */\n      dup2\n        /* \"#utility.yul\":9780:9815   */\n      eq\n        /* \"#utility.yul\":9770:9772   */\n      tag_231\n      jumpi\n        /* \"#utility.yul\":9829:9830   */\n      0x00\n        /* \"#utility.yul\":9826:9827   */\n      dup1\n        /* \"#utility.yul\":9819:9831   */\n      revert\n        /* \"#utility.yul\":9770:9772   */\n    tag_231:\n        /* \"#utility.yul\":9760:9839   */\n      pop\n      jump\t// out\n        /* \"#utility.yul\":9845:9967   */\n    tag_131:\n        /* \"#utility.yul\":9918:9942   */\n      tag_233\n        /* \"#utility.yul\":9936:9941   */\n      dup2\n        /* \"#utility.yul\":9918:9942   */\n      tag_172\n      jump\t// in\n    tag_233:\n        /* \"#utility.yul\":9911:9916   */\n      dup2\n        /* \"#utility.yul\":9908:9943   */\n      eq\n        /* \"#utility.yul\":9898:9900   */\n      tag_234\n      jumpi\n        /* \"#utility.yul\":9957:9958   */\n      0x00\n        /* \"#utility.yul\":9954:9955   */\n      dup1\n        /* \"#utility.yul\":9947:9959   */\n      revert\n        /* \"#utility.yul\":9898:9900   */\n    tag_234:\n        /* \"#utility.yul\":9888:9967   */\n      pop\n      jump\t// out\n\n    auxdata: 0xa26469706673582212206b8412b4597b0cb4f123e5a5f09de5dc6c15b846c790b53d54cc18f55330787d64736f6c63430008000033\n}\n",
				"bytecode": {
					"linkReferences": {},
					"object": "60806040523480156200001157600080fd5b50336000806101000a81548173ffffffffffffffffffffffffffffffffffffffff021916908373ffffffffffffffffffffffffffffffffffffffff160217905550620000986040518060400160405280600581526020017f416c696365000000000000000000000000000000000000000000000000000000815250620000e460201b60201c565b620000de6040518060400160405280600381526020017f426f620000000000000000000000000000000000000000000000000000000000815250620000e460201b60201c565b62000473565b60008054906101000a900473ffffffffffffffffffffffffffffffffffffffff1673ffffffffffffffffffffffffffffffffffffffff163373ffffffffffffffffffffffffffffffffffffffff161462000175576040517f08c379a00000000000000000000000000000000000000000000000000000000081526004016200016c9062000389565b60405180910390fd5b60016040518060600160405280600180549050815260200183815260200160008152509080600181540180825580915050600190039060005260206000209060030201600090919091909150600082015181600001556020820151816001019080519060200190620001e992919062000232565b506040820151816002015550507ff29562dad1599aea0ebb142466120aab326d5efa8f839df82a9c064bf78e89388160405162000227919062000365565b60405180910390a150565b8280546200024090620003fd565b90600052602060002090601f016020900481019282620002645760008555620002b0565b82601f106200027f57805160ff1916838001178555620002b0565b82800160010185558215620002b0579182015b82811115620002af57825182559160200191906001019062000292565b5b509050620002bf9190620002c3565b5090565b5b80821115620002de576000816000905550600101620002c4565b5090565b6000620002ef82620003ab565b620002fb8185620003b6565b93506200030d818560208601620003c7565b620003188162000462565b840191505092915050565b600062000332601283620003b6565b91507f4f6e6c79206f776e657220616c6c6f77656400000000000000000000000000006000830152602082019050919050565b60006020820190508181036000830152620003818184620002e2565b905092915050565b60006020820190508181036000830152620003a48162000323565b9050919050565b600081519050919050565b600082825260208201905092915050565b60005b83811015620003e7578082015181840152602081019050620003ca565b83811115620003f7576000848401525b50505050565b600060028204905060018216806200041657607f821691505b602082108114156200042d576200042c62000433565b5b50919050565b7f4e487b7100000000000000000000000000000000000000000000000000000000600052602260045260246000fd5b6000601f19601f8301169050919050565b610f4e80620004836000396000f3fe608060405234801561001057600080fd5b50600436106100885760003560e01c80638da5cb5b1161005b5780638da5cb5b14610127578063bb9aa28f14610145578063da58c7d914610163578063e8f305231461019357610088565b80630121b93f1461008d57806309eef43e146100a95780633477ee2e146100d9578063462e91ec1461010b575b600080fd5b6100a760048036038101906100a29190610a41565b61019d565b005b6100c360048036038101906100be91906109d7565b6103c9565b6040516100d09190610bd4565b60405180910390f35b6100f360048036038101906100ee9190610a41565b6103e9565b60405161010293929190610c8c565b60405180910390f35b61012560048036038101906101209190610a00565b6104ab565b005b61012f6105f2565b60405161013c9190610b90565b60405180910390f35b61014d610616565b60405161015a9190610c71565b60405180910390f35b61017d60048036038101906101789190610a41565b610623565b60405161018a9190610b90565b60405180910390f35b61019b610662565b005b600260003373ffffffffffffffffffffffffffffffffffffffff1673ffffffffffffffffffffffffffffffffffffffff16815260200190815260200160002060009054906101000a900460ff161561022a576040517f08c379a000000000000000000000000000000000000000000000000000000000815260040161022190610c11565b60405180910390fd5b6001805490508110610271576040517f08c379a000000000000000000000000000000000000000000000000000000000815260040161026890610c31565b60405180910390fd5b6001600260003373ffffffffffffffffffffffffffffffffffffffff1673ffffffffffffffffffffffffffffffffffffffff16815260200190815260200160002060006101000a81548160ff0219169083151502179055506003339080600181540180825580915050600190039060005260206000200160009091909190916101000a81548173ffffffffffffffffffffffffffffffffffffffff021916908373ffffffffffffffffffffffffffffffffffffffff16021790555060018181548110610366577f4e487b7100000000000000000000000000000000000000000000000000000000600052603260045260246000fd5b9060005260206000209060030201600201600081548092919061038890610e03565b91905055507f8526c3debc05fa47d452deff6098c92355df470ccfdaeaf2c357db45e4451a2c33826040516103be929190610bab565b60405180910390a150565b60026020528060005260406000206000915054906101000a900460ff1681565b600181815481106103f957600080fd5b906000526020600020906003020160009150905080600001549080600101805461042290610dd1565b80601f016020809104026020016040519081016040528092919081815260200182805461044e90610dd1565b801561049b5780601f106104705761010080835404028352916020019161049b565b820191906000526020600020905b81548152906001019060200180831161047e57829003601f168201915b5050505050908060020154905083565b60008054906101000a900473ffffffffffffffffffffffffffffffffffffffff1673ffffffffffffffffffffffffffffffffffffffff163373ffffffffffffffffffffffffffffffffffffffff1614610539576040517f08c379a000000000000000000000000000000000000000000000000000000000815260040161053090610c51565b60405180910390fd5b600160405180606001604052806001805490508152602001838152602001600081525090806001815401808255809150506001900390600052602060002090600302016000909190919091506000820151816000015560208201518160010190805190602001906105ab929190610881565b506040820151816002015550507ff29562dad1599aea0ebb142466120aab326d5efa8f839df82a9c064bf78e8938816040516105e79190610bef565b60405180910390a150565b60008054906101000a900473ffffffffffffffffffffffffffffffffffffffff1681565b6000600180549050905090565b6003818154811061063357600080fd5b906000526020600020016000915054906101000a900473ffffffffffffffffffffffffffffffffffffffff1681565b60008054906101000a900473ffffffffffffffffffffffffffffffffffffffff1673ffffffffffffffffffffffffffffffffffffffff163373ffffffffffffffffffffffffffffffffffffffff16146106f0576040517f08c379a00000000000000000000000000000000000000000000000000000000081526004016106e790610c51565b60405180910390fd5b60005b6003805490508110156107cf5760006002600060038481548110610740577f4e487b7100000000000000000000000000000000000000000000000000000000600052603260045260246000fd5b9060005260206000200160009054906101000a900473ffffffffffffffffffffffffffffffffffffffff1673ffffffffffffffffffffffffffffffffffffffff1673ffffffffffffffffffffffffffffffffffffffff16815260200190815260200160002060006101000a81548160ff02191690831515021790555080806107c790610e03565b9150506106f3565b50600360006107de9190610907565b60005b6001805490508110156108525760006001828154811061082a577f4e487b7100000000000000000000000000000000000000000000000000000000600052603260045260246000fd5b906000526020600020906003020160020181905550808061084a90610e03565b9150506107e1565b507f8d1085cd9eceaab0b77fd20c66dea55df08e5ef2d52859c2cb4a1e16ba9476c060405160405180910390a1565b82805461088d90610dd1565b90600052602060002090601f0160209004810192826108af57600085556108f6565b82601f106108c857805160ff19168380011785556108f6565b828001600101855582156108f6579182015b828111156108f55782518255916020019190600101906108da565b5b5090506109039190610928565b5090565b50805460008255906000526020600020908101906109259190610928565b50565b5b80821115610941576000816000905550600101610929565b5090565b600061095861095384610cfb565b610cca565b90508281526020810184848401111561097057600080fd5b61097b848285610d8f565b509392505050565b60008135905061099281610eea565b92915050565b600082601f8301126109a957600080fd5b81356109b9848260208601610945565b91505092915050565b6000813590506109d181610f01565b92915050565b6000602082840312156109e957600080fd5b60006109f784828501610983565b91505092915050565b600060208284031215610a1257600080fd5b600082013567ffffffffffffffff811115610a2c57600080fd5b610a3884828501610998565b91505092915050565b600060208284031215610a5357600080fd5b6000610a61848285016109c2565b91505092915050565b610a7381610d47565b82525050565b610a8281610d59565b82525050565b6000610a9382610d2b565b610a9d8185610d36565b9350610aad818560208601610d9e565b610ab681610ed9565b840191505092915050565b6000610ace600d83610d36565b91507f416c726561647920766f746564000000000000000000000000000000000000006000830152602082019050919050565b6000610b0e601183610d36565b91507f496e76616c69642063616e6469646174650000000000000000000000000000006000830152602082019050919050565b6000610b4e601283610d36565b91507f4f6e6c79206f776e657220616c6c6f77656400000000000000000000000000006000830152602082019050919050565b610b8a81610d85565b82525050565b6000602082019050610ba56000830184610a6a565b92915050565b6000604082019050610bc06000830185610a6a565b610bcd6020830184610b81565b9392505050565b6000602082019050610be96000830184610a79565b92915050565b60006020820190508181036000830152610c098184610a88565b905092915050565b60006020820190508181036000830152610c2a81610ac1565b9050919050565b60006020820190508181036000830152610c4a81610b01565b9050919050565b60006020820190508181036000830152610c6a81610b41565b9050919050565b6000602082019050610c866000830184610b81565b92915050565b6000606082019050610ca16000830186610b81565b8181036020830152610cb38185610a88565b9050610cc26040830184610b81565b949350505050565b6000604051905081810181811067ffffffffffffffff82111715610cf157610cf0610eaa565b5b8060405250919050565b600067ffffffffffffffff821115610d1657610d15610eaa565b5b601f19601f8301169050602081019050919050565b600081519050919050565b600082825260208201905092915050565b6000610d5282610d65565b9050919050565b60008115159050919050565b600073ffffffffffffffffffffffffffffffffffffffff82169050919050565b6000819050919050565b82818337600083830152505050565b60005b83811015610dbc578082015181840152602081019050610da1565b83811115610dcb576000848401525b50505050565b60006002820490506001821680610de957607f821691505b60208210811415610dfd57610dfc610e7b565b5b50919050565b6000610e0e82610d85565b91507fffffffffffffffffffffffffffffffffffffffffffffffffffffffffffffffff821415610e4157610e40610e4c565b5b600182019050919050565b7f4e487b7100000000000000000000000000000000000000000000000000000000600052601160045260246000fd5b7f4e487b7100000000000000000000000000000000000000000000000000000000600052602260045260246000fd5b7f4e487b7100000000000000000000000000000000000000000000000000000000600052604160045260246000fd5b6000601f19601f8301169050919050565b610ef381610d47565b8114610efe57600080fd5b50565b610f0a81610d85565b8114610f1557600080fd5b5056fea26469706673582212206b8412b4597b0cb4f123e5a5f09de5dc6c15b846c790b53d54cc18f55330787d64736f6c63430008000033",
					"opcodes": "PUSH1 0x80 PUSH1 0x40 MSTORE CALLVALUE DUP1 ISZERO PUSH3 0x11 JUMPI PUSH1 0x0 DUP1 REVERT JUMPDEST POP CALLER PUSH1 0x0 DUP1 PUSH2 0x100 EXP DUP2 SLOAD DUP2 PUSH20 0xFFFFFFFFFFFFFFFFFFFFFFFFFFFFFFFFFFFFFFFF MUL NOT AND SWAP1 DUP4 PUSH20 0xFFFFFFFFFFFFFFFFFFFFFFFFFFFFFFFFFFFFFFFF AND MUL OR SWAP1 SSTORE POP PUSH3 0x98 PUSH1 0x40 MLOAD DUP1 PUSH1 0x40 ADD PUSH1 0x40 MSTORE DUP1 PUSH1 0x5 DUP2 MSTORE PUSH1 0x20 ADD PUSH32 0x416C696365000000000000000000000000000000000000000000000000000000 DUP2 MSTORE POP PUSH3 0xE4 PUSH1 0x20 SHL PUSH1 0x20 SHR JUMP JUMPDEST PUSH3 0xDE PUSH1 0x40 MLOAD DUP1 PUSH1 0x40 ADD PUSH1 0x40 MSTORE DUP1 PUSH1 0x3 DUP2 MSTORE PUSH1 0x20 ADD PUSH32 0x426F620000000000000000000000000000000000000000000000000000000000 DUP2 MSTORE POP PUSH3 0xE4 PUSH1 0x20 SHL PUSH1 0x20 SHR JUMP JUMPDEST PUSH3 0x473 JUMP JUMPDEST PUSH1 0x0 DUP1 SLOAD SWAP1 PUSH2 0x100 EXP SWAP1 DIV PUSH20 0xFFFFFFFFFFFFFFFFFFFFFFFFFFFFFFFFFFFFFFFF AND PUSH20 0xFFFFFFFFFFFFFFFFFFFFFFFFFFFFFFFFFFFFFFFF AND CALLER PUSH20 0xFFFFFFFFFFFFFFFFFFFFFFFFFFFFFFFFFFFFFFFF AND EQ PUSH3 0x175 JUMPI PUSH1 0x40 MLOAD PUSH32 0x8C379A000000000000000000000000000000000000000000000000000000000 DUP2 MSTORE PUSH1 0x4 ADD PUSH3 0x16C SWAP1 PUSH3 0x389 JUMP JUMPDEST PUSH1 0x40 MLOAD DUP1 SWAP2 SUB SWAP1 REVERT JUMPDEST PUSH1 0x1 PUSH1 0x40 MLOAD DUP1 PUSH1 0x60 ADD PUSH1 0x40 MSTORE DUP1 PUSH1 0x1 DUP1 SLOAD SWAP1 POP DUP2 MSTORE PUSH1 0x20 ADD DUP4 DUP2 MSTORE PUSH1 0x20 ADD PUSH1 0x0 DUP2 MSTORE POP SWAP1 DUP1 PUSH1 0x1 DUP2 SLOAD ADD DUP1 DUP3 SSTORE DUP1 SWAP2 POP POP PUSH1 0x1 SWAP1 SUB SWAP1 PUSH1 0x0 MSTORE PUSH1 0x20 PUSH1 0x0 KECCAK256 SWAP1 PUSH1 0x3 MUL ADD PUSH1 0x0 SWAP1 SWAP2 SWAP1 SWAP2 SWAP1 SWAP2 POP PUSH1 0x0 DUP3 ADD MLOAD DUP2 PUSH1 0x0 ADD SSTORE PUSH1 0x20 DUP3 ADD MLOAD DUP2 PUSH1 0x1 ADD SWAP1 DUP1 MLOAD SWAP1 PUSH1 0x20 ADD SWAP1 PUSH3 0x1E9 SWAP3 SWAP2 SWAP1 PUSH3 0x232 JUMP JUMPDEST POP PUSH1 0x40 DUP3 ADD MLOAD DUP2 PUSH1 0x2 ADD SSTORE POP POP PUSH32 0xF29562DAD1599AEA0EBB142466120AAB326D5EFA8F839DF82A9C064BF78E8938 DUP2 PUSH1 0x40 MLOAD PUSH3 0x227 SWAP2 SWAP1 PUSH3 0x365 JUMP JUMPDEST PUSH1 0x40 MLOAD DUP1 SWAP2 SUB SWAP1 LOG1 POP JUMP JUMPDEST DUP3 DUP1 SLOAD PUSH3 0x240 SWAP1 PUSH3 0x3FD JUMP JUMPDEST SWAP1 PUSH1 0x0 MSTORE PUSH1 0x20 PUSH1 0x0 KECCAK256 SWAP1 PUSH1 0x1F ADD PUSH1 0x20 SWAP1 DIV DUP2 ADD SWAP3 DUP3 PUSH3 0x264 JUMPI PUSH1 0x0 DUP6 SSTORE PUSH3 0x2B0 JUMP JUMPDEST DUP3 PUSH1 0x1F LT PUSH3 0x27F JUMPI DUP1 MLOAD PUSH1 0xFF NOT AND DUP4 DUP1 ADD OR DUP6 SSTORE PUSH3 0x2B0 JUMP JUMPDEST DUP3 DUP1 ADD PUSH1 0x1 ADD DUP6 SSTORE DUP3 ISZERO PUSH3 0x2B0 JUMPI SWAP2 DUP3 ADD JUMPDEST DUP3 DUP2 GT ISZERO PUSH3 0x2AF JUMPI DUP3 MLOAD DUP3 SSTORE SWAP2 PUSH1 0x20 ADD SWAP2 SWAP1 PUSH1 0x1 ADD SWAP1 PUSH3 0x292 JUMP JUMPDEST JUMPDEST POP SWAP1 POP PUSH3 0x2BF SWAP2 SWAP1 PUSH3 0x2C3 JUMP JUMPDEST POP SWAP1 JUMP JUMPDEST JUMPDEST DUP1 DUP3 GT ISZERO PUSH3 0x2DE JUMPI PUSH1 0x0 DUP2 PUSH1 0x0 SWAP1 SSTORE POP PUSH1 0x1 ADD PUSH3 0x2C4 JUMP JUMPDEST POP SWAP1 JUMP JUMPDEST PUSH1 0x0 PUSH3 0x2EF DUP3 PUSH3 0x3AB JUMP JUMPDEST PUSH3 0x2FB DUP2 DUP6 PUSH3 0x3B6 JUMP JUMPDEST SWAP4 POP PUSH3 0x30D DUP2 DUP6 PUSH1 0x20 DUP7 ADD PUSH3 0x3C7 JUMP JUMPDEST PUSH3 0x318 DUP2 PUSH3 0x462 JUMP JUMPDEST DUP5 ADD SWAP2 POP POP SWAP3 SWAP2 POP POP JUMP JUMPDEST PUSH1 0x0 PUSH3 0x332 PUSH1 0x12 DUP4 PUSH3 0x3B6 JUMP JUMPDEST SWAP2 POP PUSH32 0x4F6E6C79206F776E657220616C6C6F7765640000000000000000000000000000 PUSH1 0x0 DUP4 ADD MSTORE PUSH1 0x20 DUP3 ADD SWAP1 POP SWAP2 SWAP1 POP JUMP JUMPDEST PUSH1 0x0 PUSH1 0x20 DUP3 ADD SWAP1 POP DUP2 DUP2 SUB PUSH1 0x0 DUP4 ADD MSTORE PUSH3 0x381 DUP2 DUP5 PUSH3 0x2E2 JUMP JUMPDEST SWAP1 POP SWAP3 SWAP2 POP POP JUMP JUMPDEST PUSH1 0x0 PUSH1 0x20 DUP3 ADD SWAP1 POP DUP2 DUP2 SUB PUSH1 0x0 DUP4 ADD MSTORE PUSH3 0x3A4 DUP2 PUSH3 0x323 JUMP JUMPDEST SWAP1 POP SWAP2 SWAP1 POP JUMP JUMPDEST PUSH1 0x0 DUP2 MLOAD SWAP1 POP SWAP2 SWAP1 POP JUMP JUMPDEST PUSH1 0x0 DUP3 DUP3 MSTORE PUSH1 0x20 DUP3 ADD SWAP1 POP SWAP3 SWAP2 POP POP JUMP JUMPDEST PUSH1 0x0 JUMPDEST DUP4 DUP2 LT ISZERO PUSH3 0x3E7 JUMPI DUP1 DUP3 ADD MLOAD DUP2 DUP5 ADD MSTORE PUSH1 0x20 DUP2 ADD SWAP1 POP PUSH3 0x3CA JUMP JUMPDEST DUP4 DUP2 GT ISZERO PUSH3 0x3F7 JUMPI PUSH1 0x0 DUP5 DUP5 ADD MSTORE JUMPDEST POP POP POP POP JUMP JUMPDEST PUSH1 0x0 PUSH1 0x2 DUP3 DIV SWAP1 POP PUSH1 0x1 DUP3 AND DUP1 PUSH3 0x416 JUMPI PUSH1 0x7F DUP3 AND SWAP2 POP JUMPDEST PUSH1 0x20 DUP3 LT DUP2 EQ ISZERO PUSH3 0x42D JUMPI PUSH3 0x42C PUSH3 0x433 JUMP JUMPDEST JUMPDEST POP SWAP2 SWAP1 POP JUMP JUMPDEST PUSH32 0x4E487B7100000000000000000000000000000000000000000000000000000000 PUSH1 0x0 MSTORE PUSH1 0x22 PUSH1 0x4 MSTORE PUSH1 0x24 PUSH1 0x0 REVERT JUMPDEST PUSH1 0x0 PUSH1 0x1F NOT PUSH1 0x1F DUP4 ADD AND SWAP1 POP SWAP2 SWAP1 POP JUMP JUMPDEST PUSH2 0xF4E DUP1 PUSH3 0x483 PUSH1 0x0 CODECOPY PUSH1 0x0 RETURN INVALID PUSH1 0x80 PUSH1 0x40 MSTORE CALLVALUE DUP1 ISZERO PUSH2 0x10 JUMPI PUSH1 0x0 DUP1 REVERT JUMPDEST POP PUSH1 0x4 CALLDATASIZE LT PUSH2 0x88 JUMPI PUSH1 0x0 CALLDATALOAD PUSH1 0xE0 SHR DUP1 PUSH4 0x8DA5CB5B GT PUSH2 0x5B JUMPI DUP1 PUSH4 0x8DA5CB5B EQ PUSH2 0x127 JUMPI DUP1 PUSH4 0xBB9AA28F EQ PUSH2 0x145 JUMPI DUP1 PUSH4 0xDA58C7D9 EQ PUSH2 0x163 JUMPI DUP1 PUSH4 0xE8F30523 EQ PUSH2 0x193 JUMPI PUSH2 0x88 JUMP JUMPDEST DUP1 PUSH4 0x121B93F EQ PUSH2 0x8D JUMPI DUP1 PUSH4 0x9EEF43E EQ PUSH2 0xA9 JUMPI DUP1 PUSH4 0x3477EE2E EQ PUSH2 0xD9 JUMPI DUP1 PUSH4 0x462E91EC EQ PUSH2 0x10B JUMPI JUMPDEST PUSH1 0x0 DUP1 REVERT JUMPDEST PUSH2 0xA7 PUSH1 0x4 DUP1 CALLDATASIZE SUB DUP2 ADD SWAP1 PUSH2 0xA2 SWAP2 SWAP1 PUSH2 0xA41 JUMP JUMPDEST PUSH2 0x19D JUMP JUMPDEST STOP JUMPDEST PUSH2 0xC3 PUSH1 0x4 DUP1 CALLDATASIZE SUB DUP2 ADD SWAP1 PUSH2 0xBE SWAP2 SWAP1 PUSH2 0x9D7 JUMP JUMPDEST PUSH2 0x3C9 JUMP JUMPDEST PUSH1 0x40 MLOAD PUSH2 0xD0 SWAP2 SWAP1 PUSH2 0xBD4 JUMP JUMPDEST PUSH1 0x40 MLOAD DUP1 SWAP2 SUB SWAP1 RETURN JUMPDEST PUSH2 0xF3 PUSH1 0x4 DUP1 CALLDATASIZE SUB DUP2 ADD SWAP1 PUSH2 0xEE SWAP2 SWAP1 PUSH2 0xA41 JUMP JUMPDEST PUSH2 0x3E9 JUMP JUMPDEST PUSH1 0x40 MLOAD PUSH2 0x102 SWAP4 SWAP3 SWAP2 SWAP1 PUSH2 0xC8C JUMP JUMPDEST PUSH1 0x40 MLOAD DUP1 SWAP2 SUB SWAP1 RETURN JUMPDEST PUSH2 0x125 PUSH1 0x4 DUP1 CALLDATASIZE SUB DUP2 ADD SWAP1 PUSH2 0x120 SWAP2 SWAP1 PUSH2 0xA00 JUMP JUMPDEST PUSH2 0x4AB JUMP JUMPDEST STOP JUMPDEST PUSH2 0x12F PUSH2 0x5F2 JUMP JUMPDEST PUSH1 0x40 MLOAD PUSH2 0x13C SWAP2 SWAP1 PUSH2 0xB90 JUMP JUMPDEST PUSH1 0x40 MLOAD DUP1 SWAP2 SUB SWAP1 RETURN JUMPDEST PUSH2 0x14D PUSH2 0x616 JUMP JUMPDEST PUSH1 0x40 MLOAD PUSH2 0x15A SWAP2 SWAP1 PUSH2 0xC71 JUMP JUMPDEST PUSH1 0x40 MLOAD DUP1 SWAP2 SUB SWAP1 RETURN JUMPDEST PUSH2 0x17D PUSH1 0x4 DUP1 CALLDATASIZE SUB DUP2 ADD SWAP1 PUSH2 0x178 SWAP2 SWAP1 PUSH2 0xA41 JUMP JUMPDEST PUSH2 0x623 JUMP JUMPDEST PUSH1 0x40 MLOAD PUSH2 0x18A SWAP2 SWAP1 PUSH2 0xB90 JUMP JUMPDEST PUSH1 0x40 MLOAD DUP1 SWAP2 SUB SWAP1 RETURN JUMPDEST PUSH2 0x19B PUSH2 0x662 JUMP JUMPDEST STOP JUMPDEST PUSH1 0x2 PUSH1 0x0 CALLER PUSH20 0xFFFFFFFFFFFFFFFFFFFFFFFFFFFFFFFFFFFFFFFF AND PUSH20 0xFFFFFFFFFFFFFFFFFFFFFFFFFFFFFFFFFFFFFFFF AND DUP2 MSTORE PUSH1 0x20 ADD SWAP1 DUP2 MSTORE PUSH1 0x20 ADD PUSH1 0x0 KECCAK256 PUSH1 0x0 SWAP1 SLOAD SWAP1 PUSH2 0x100 EXP SWAP1 DIV PUSH1 0xFF AND ISZERO PUSH2 0x22A JUMPI PUSH1 0x40 MLOAD PUSH32 0x8C379A000000000000000000000000000000000000000000000000000000000 DUP2 MSTORE PUSH1 0x4 ADD PUSH2 0x221 SWAP1 PUSH2 0xC11 JUMP JUMPDEST PUSH1 0x40 MLOAD DUP1 SWAP2 SUB SWAP1 REVERT JUMPDEST PUSH1 0x1 DUP1 SLOAD SWAP1 POP DUP2 LT PUSH2 0x271 JUMPI PUSH1 0x40 MLOAD PUSH32 0x8C379A000000000000000000000000000000000000000000000000000000000 DUP2 MSTORE PUSH1 0x4 ADD PUSH2 0x268 SWAP1 PUSH2 0xC31 JUMP JUMPDEST PUSH1 0x40 MLOAD DUP1 SWAP2 SUB SWAP1 REVERT JUMPDEST PUSH1 0x1 PUSH1 0x2 PUSH1 0x0 CALLER PUSH20 0xFFFFFFFFFFFFFFFFFFFFFFFFFFFFFFFFFFFFFFFF AND PUSH20 0xFFFFFFFFFFFFFFFFFFFFFFFFFFFFFFFFFFFFFFFF AND DUP2 MSTORE PUSH1 0x20 ADD SWAP1 DUP2 MSTORE PUSH1 0x20 ADD PUSH1 0x0 KECCAK256 PUSH1 0x0 PUSH2 0x100 EXP DUP2 SLOAD DUP2 PUSH1 0xFF MUL NOT AND SWAP1 DUP4 ISZERO ISZERO MUL OR SWAP1 SSTORE POP PUSH1 0x3 CALLER SWAP1 DUP1 PUSH1 0x1 DUP2 SLOAD ADD DUP1 DUP3 SSTORE DUP1 SWAP2 POP POP PUSH1 0x1 SWAP1 SUB SWAP1 PUSH1 0x0 MSTORE PUSH1 0x20 PUSH1 0x0 KECCAK256 ADD PUSH1 0x0 SWAP1 SWAP2 SWAP1 SWAP2 SWAP1 SWAP2 PUSH2 0x100 EXP DUP2 SLOAD DUP2 PUSH20 0xFFFFFFFFFFFFFFFFFFFFFFFFFFFFFFFFFFFFFFFF MUL NOT AND SWAP1 DUP4 PUSH20 0xFFFFFFFFFFFFFFFFFFFFFFFFFFFFFFFFFFFFFFFF AND MUL OR SWAP1 SSTORE POP PUSH1 0x1 DUP2 DUP2 SLOAD DUP2 LT PUSH2 0x366 JUMPI PUSH32 0x4E487B7100000000000000000000000000000000000000000000000000000000 PUSH1 0x0 MSTORE PUSH1 0x32 PUSH1 0x4 MSTORE PUSH1 0x24 PUSH1 0x0 REVERT JUMPDEST SWAP1 PUSH1 0x0 MSTORE PUSH1 0x20 PUSH1 0x0 KECCAK256 SWAP1 PUSH1 0x3 MUL ADD PUSH1 0x2 ADD PUSH1 0x0 DUP2 SLOAD DUP1 SWAP3 SWAP2 SWAP1 PUSH2 0x388 SWAP1 PUSH2 0xE03 JUMP JUMPDEST SWAP2 SWAP1 POP SSTORE POP PUSH32 0x8526C3DEBC05FA47D452DEFF6098C92355DF470CCFDAEAF2C357DB45E4451A2C CALLER DUP3 PUSH1 0x40 MLOAD PUSH2 0x3BE SWAP3 SWAP2 SWAP1 PUSH2 0xBAB JUMP JUMPDEST PUSH1 0x40 MLOAD DUP1 SWAP2 SUB SWAP1 LOG1 POP JUMP JUMPDEST PUSH1 0x2 PUSH1 0x20 MSTORE DUP1 PUSH1 0x0 MSTORE PUSH1 0x40 PUSH1 0x0 KECCAK256 PUSH1 0x0 SWAP2 POP SLOAD SWAP1 PUSH2 0x100 EXP SWAP1 DIV PUSH1 0xFF AND DUP2 JUMP JUMPDEST PUSH1 0x1 DUP2 DUP2 SLOAD DUP2 LT PUSH2 0x3F9 JUMPI PUSH1 0x0 DUP1 REVERT JUMPDEST SWAP1 PUSH1 0x0 MSTORE PUSH1 0x20 PUSH1 0x0 KECCAK256 SWAP1 PUSH1 0x3 MUL ADD PUSH1 0x0 SWAP2 POP SWAP1 POP DUP1 PUSH1 0x0 ADD SLOAD SWAP1 DUP1 PUSH1 0x1 ADD DUP1 SLOAD PUSH2 0x422 SWAP1 PUSH2 0xDD1 JUMP JUMPDEST DUP1 PUSH1 0x1F ADD PUSH1 0x20 DUP1 SWAP2 DIV MUL PUSH1 0x20 ADD PUSH1 0x40 MLOAD SWAP1 DUP2 ADD PUSH1 0x40 MSTORE DUP1 SWAP3 SWAP2 SWAP1 DUP2 DUP2 MSTORE PUSH1 0x20 ADD DUP3 DUP1 SLOAD PUSH2 0x44E SWAP1 PUSH2 0xDD1 JUMP JUMPDEST DUP1 ISZERO PUSH2 0x49B JUMPI DUP1 PUSH1 0x1F LT PUSH2 0x470 JUMPI PUSH2 0x100 DUP1 DUP4 SLOAD DIV MUL DUP4 MSTORE SWAP2 PUSH1 0x20 ADD SWAP2 PUSH2 0x49B JUMP JUMPDEST DUP3 ADD SWAP2 SWAP1 PUSH1 0x0 MSTORE PUSH1 0x20 PUSH1 0x0 KECCAK256 SWAP1 JUMPDEST DUP2 SLOAD DUP2 MSTORE SWAP1 PUSH1 0x1 ADD SWAP1 PUSH1 0x20 ADD DUP1 DUP4 GT PUSH2 0x47E JUMPI DUP3 SWAP1 SUB PUSH1 0x1F AND DUP3 ADD SWAP2 JUMPDEST POP POP POP POP POP SWAP1 DUP1 PUSH1 0x2 ADD SLOAD SWAP1 POP DUP4 JUMP JUMPDEST PUSH1 0x0 DUP1 SLOAD SWAP1 PUSH2 0x100 EXP SWAP1 DIV PUSH20 0xFFFFFFFFFFFFFFFFFFFFFFFFFFFFFFFFFFFFFFFF AND PUSH20 0xFFFFFFFFFFFFFFFFFFFFFFFFFFFFFFFFFFFFFFFF AND CALLER PUSH20 0xFFFFFFFFFFFFFFFFFFFFFFFFFFFFFFFFFFFFFFFF AND EQ PUSH2 0x539 JUMPI PUSH1 0x40 MLOAD PUSH32 0x8C379A000000000000000000000000000000000000000000000000000000000 DUP2 MSTORE PUSH1 0x4 ADD PUSH2 0x530 SWAP1 PUSH2 0xC51 JUMP JUMPDEST PUSH1 0x40 MLOAD DUP1 SWAP2 SUB SWAP1 REVERT JUMPDEST PUSH1 0x1 PUSH1 0x40 MLOAD DUP1 PUSH1 0x60 ADD PUSH1 0x40 MSTORE DUP1 PUSH1 0x1 DUP1 SLOAD SWAP1 POP DUP2 MSTORE PUSH1 0x20 ADD DUP4 DUP2 MSTORE PUSH1 0x20 ADD PUSH1 0x0 DUP2 MSTORE POP SWAP1 DUP1 PUSH1 0x1 DUP2 SLOAD ADD DUP1 DUP3 SSTORE DUP1 SWAP2 POP POP PUSH1 0x1 SWAP1 SUB SWAP1 PUSH1 0x0 MSTORE PUSH1 0x20 PUSH1 0x0 KECCAK256 SWAP1 PUSH1 0x3 MUL ADD PUSH1 0x0 SWAP1 SWAP2 SWAP1 SWAP2 SWAP1 SWAP2 POP PUSH1 0x0 DUP3 ADD MLOAD DUP2 PUSH1 0x0 ADD SSTORE PUSH1 0x20 DUP3 ADD MLOAD DUP2 PUSH1 0x1 ADD SWAP1 DUP1 MLOAD SWAP1 PUSH1 0x20 ADD SWAP1 PUSH2 0x5AB SWAP3 SWAP2 SWAP1 PUSH2 0x881 JUMP JUMPDEST POP PUSH1 0x40 DUP3 ADD MLOAD DUP2 PUSH1 0x2 ADD SSTORE POP POP PUSH32 0xF29562DAD1599AEA0EBB142466120AAB326D5EFA8F839DF82A9C064BF78E8938 DUP2 PUSH1 0x40 MLOAD PUSH2 0x5E7 SWAP2 SWAP1 PUSH2 0xBEF JUMP JUMPDEST PUSH1 0x40 MLOAD DUP1 SWAP2 SUB SWAP1 LOG1 POP JUMP JUMPDEST PUSH1 0x0 DUP1 SLOAD SWAP1 PUSH2 0x100 EXP SWAP1 DIV PUSH20 0xFFFFFFFFFFFFFFFFFFFFFFFFFFFFFFFFFFFFFFFF AND DUP2 JUMP JUMPDEST PUSH1 0x0 PUSH1 0x1 DUP1 SLOAD SWAP1 POP SWAP1 POP SWAP1 JUMP JUMPDEST PUSH1 0x3 DUP2 DUP2 SLOAD DUP2 LT PUSH2 0x633 JUMPI PUSH1 0x0 DUP1 REVERT JUMPDEST SWAP1 PUSH1 0x0 MSTORE PUSH1 0x20 PUSH1 0x0 KECCAK256 ADD PUSH1 0x0 SWAP2 POP SLOAD SWAP1 PUSH2 0x100 EXP SWAP1 DIV PUSH20 0xFFFFFFFFFFFFFFFFFFFFFFFFFFFFFFFFFFFFFFFF AND DUP2 JUMP JUMPDEST PUSH1 0x0 DUP1 SLOAD SWAP1 PUSH2 0x100 EXP SWAP1 DIV PUSH20 0xFFFFFFFFFFFFFFFFFFFFFFFFFFFFFFFFFFFFFFFF AND PUSH20 0xFFFFFFFFFFFFFFFFFFFFFFFFFFFFFFFFFFFFFFFF AND CALLER PUSH20 0xFFFFFFFFFFFFFFFFFFFFFFFFFFFFFFFFFFFFFFFF AND EQ PUSH2 0x6F0 JUMPI PUSH1 0x40 MLOAD PUSH32 0x8C379A000000000000000000000000000000000000000000000000000000000 DUP2 MSTORE PUSH1 0x4 ADD PUSH2 0x6E7 SWAP1 PUSH2 0xC51 JUMP JUMPDEST PUSH1 0x40 MLOAD DUP1 SWAP2 SUB SWAP1 REVERT JUMPDEST PUSH1 0x0 JUMPDEST PUSH1 0x3 DUP1 SLOAD SWAP1 POP DUP2 LT ISZERO PUSH2 0x7CF JUMPI PUSH1 0x0 PUSH1 0x2 PUSH1 0x0 PUSH1 0x3 DUP5 DUP2 SLOAD DUP2 LT PUSH2 0x740 JUMPI PUSH32 0x4E487B7100000000000000000000000000000000000000000000000000000000 PUSH1 0x0 MSTORE PUSH1 0x32 PUSH1 0x4 MSTORE PUSH1 0x24 PUSH1 0x0 REVERT JUMPDEST SWAP1 PUSH1 0x0 MSTORE PUSH1 0x20 PUSH1 0x0 KECCAK256 ADD PUSH1 0x0 SWAP1 SLOAD SWAP1 PUSH2 0x100 EXP SWAP1 DIV PUSH20 0xFFFFFFFFFFFFFFFFFFFFFFFFFFFFFFFFFFFFFFFF AND PUSH20 0xFFFFFFFFFFFFFFFFFFFFFFFFFFFFFFFFFFFFFFFF AND PUSH20 0xFFFFFFFFFFFFFFFFFFFFFFFFFFFFFFFFFFFFFFFF AND DUP2 MSTORE PUSH1 0x20 ADD SWAP1 DUP2 MSTORE PUSH1 0x20 ADD PUSH1 0x0 KECCAK256 PUSH1 0x0 PUSH2 0x100 EXP DUP2 SLOAD DUP2 PUSH1 0xFF MUL NOT AND SWAP1 DUP4 ISZERO ISZERO MUL OR SWAP1 SSTORE POP DUP1 DUP1 PUSH2 0x7C7 SWAP1 PUSH2 0xE03 JUMP JUMPDEST SWAP2 POP POP PUSH2 0x6F3 JUMP JUMPDEST POP PUSH1 0x3 PUSH1 0x0 PUSH2 0x7DE SWAP2 SWAP1 PUSH2 0x907 JUMP JUMPDEST PUSH1 0x0 JUMPDEST PUSH1 0x1 DUP1 SLOAD SWAP1 POP DUP2 LT ISZERO PUSH2 0x852 JUMPI PUSH1 0x0 PUSH1 0x1 DUP3 DUP2 SLOAD DUP2 LT PUSH2 0x82A JUMPI PUSH32 0x4E487B7100000000000000000000000000000000000000000000000000000000 PUSH1 0x0 MSTORE PUSH1 0x32 PUSH1 0x4 MSTORE PUSH1 0x24 PUSH1 0x0 REVERT JUMPDEST SWAP1 PUSH1 0x0 MSTORE PUSH1 0x20 PUSH1 0x0 KECCAK256 SWAP1 PUSH1 0x3 MUL ADD PUSH1 0x2 ADD DUP2 SWAP1 SSTORE POP DUP1 DUP1 PUSH2 0x84A SWAP1 PUSH2 0xE03 JUMP JUMPDEST SWAP2 POP POP PUSH2 0x7E1 JUMP JUMPDEST POP PUSH32 0x8D1085CD9ECEAAB0B77FD20C66DEA55DF08E5EF2D52859C2CB4A1E16BA9476C0 PUSH1 0x40 MLOAD PUSH1 0x40 MLOAD DUP1 SWAP2 SUB SWAP1 LOG1 JUMP JUMPDEST DUP3 DUP1 SLOAD PUSH2 0x88D SWAP1 PUSH2 0xDD1 JUMP JUMPDEST SWAP1 PUSH1 0x0 MSTORE PUSH1 0x20 PUSH1 0x0 KECCAK256 SWAP1 PUSH1 0x1F ADD PUSH1 0x20 SWAP1 DIV DUP2 ADD SWAP3 DUP3 PUSH2 0x8AF JUMPI PUSH1 0x0 DUP6 SSTORE PUSH2 0x8F6 JUMP JUMPDEST DUP3 PUSH1 0x1F LT PUSH2 0x8C8 JUMPI DUP1 MLOAD PUSH1 0xFF NOT AND DUP4 DUP1 ADD OR DUP6 SSTORE PUSH2 0x8F6 JUMP JUMPDEST DUP3 DUP1 ADD PUSH1 0x1 ADD DUP6 SSTORE DUP3 ISZERO PUSH2 0x8F6 JUMPI SWAP2 DUP3 ADD JUMPDEST DUP3 DUP2 GT ISZERO PUSH2 0x8F5 JUMPI DUP3 MLOAD DUP3 SSTORE SWAP2 PUSH1 0x20 ADD SWAP2 SWAP1 PUSH1 0x1 ADD SWAP1 PUSH2 0x8DA JUMP JUMPDEST JUMPDEST POP SWAP1 POP PUSH2 0x903 SWAP2 SWAP1 PUSH2 0x928 JUMP JUMPDEST POP SWAP1 JUMP JUMPDEST POP DUP1 SLOAD PUSH1 0x0 DUP3 SSTORE SWAP1 PUSH1 0x0 MSTORE PUSH1 0x20 PUSH1 0x0 KECCAK256 SWAP1 DUP2 ADD SWAP1 PUSH2 0x925 SWAP2 SWAP1 PUSH2 0x928 JUMP JUMPDEST POP JUMP JUMPDEST JUMPDEST DUP1 DUP3 GT ISZERO PUSH2 0x941 JUMPI PUSH1 0x0 DUP2 PUSH1 0x0 SWAP1 SSTORE POP PUSH1 0x1 ADD PUSH2 0x929 JUMP JUMPDEST POP SWAP1 JUMP JUMPDEST PUSH1 0x0 PUSH2 0x958 PUSH2 0x953 DUP5 PUSH2 0xCFB JUMP JUMPDEST PUSH2 0xCCA JUMP JUMPDEST SWAP1 POP DUP3 DUP2 MSTORE PUSH1 0x20 DUP2 ADD DUP5 DUP5 DUP5 ADD GT ISZERO PUSH2 0x970 JUMPI PUSH1 0x0 DUP1 REVERT JUMPDEST PUSH2 0x97B DUP5 DUP3 DUP6 PUSH2 0xD8F JUMP JUMPDEST POP SWAP4 SWAP3 POP POP POP JUMP JUMPDEST PUSH1 0x0 DUP2 CALLDATALOAD SWAP1 POP PUSH2 0x992 DUP2 PUSH2 0xEEA JUMP JUMPDEST SWAP3 SWAP2 POP POP JUMP JUMPDEST PUSH1 0x0 DUP3 PUSH1 0x1F DUP4 ADD SLT PUSH2 0x9A9 JUMPI PUSH1 0x0 DUP1 REVERT JUMPDEST DUP2 CALLDATALOAD PUSH2 0x9B9 DUP5 DUP3 PUSH1 0x20 DUP7 ADD PUSH2 0x945 JUMP JUMPDEST SWAP2 POP POP SWAP3 SWAP2 POP POP JUMP JUMPDEST PUSH1 0x0 DUP2 CALLDATALOAD SWAP1 POP PUSH2 0x9D1 DUP2 PUSH2 0xF01 JUMP JUMPDEST SWAP3 SWAP2 POP POP JUMP JUMPDEST PUSH1 0x0 PUSH1 0x20 DUP3 DUP5 SUB SLT ISZERO PUSH2 0x9E9 JUMPI PUSH1 0x0 DUP1 REVERT JUMPDEST PUSH1 0x0 PUSH2 0x9F7 DUP5 DUP3 DUP6 ADD PUSH2 0x983 JUMP JUMPDEST SWAP2 POP POP SWAP3 SWAP2 POP POP JUMP JUMPDEST PUSH1 0x0 PUSH1 0x20 DUP3 DUP5 SUB SLT ISZERO PUSH2 0xA12 JUMPI PUSH1 0x0 DUP1 REVERT JUMPDEST PUSH1 0x0 DUP3 ADD CALLDATALOAD PUSH8 0xFFFFFFFFFFFFFFFF DUP2 GT ISZERO PUSH2 0xA2C JUMPI PUSH1 0x0 DUP1 REVERT JUMPDEST PUSH2 0xA38 DUP5 DUP3 DUP6 ADD PUSH2 0x998 JUMP JUMPDEST SWAP2 POP POP SWAP3 SWAP2 POP POP JUMP JUMPDEST PUSH1 0x0 PUSH1 0x20 DUP3 DUP5 SUB SLT ISZERO PUSH2 0xA53 JUMPI PUSH1 0x0 DUP1 REVERT JUMPDEST PUSH1 0x0 PUSH2 0xA61 DUP5 DUP3 DUP6 ADD PUSH2 0x9C2 JUMP JUMPDEST SWAP2 POP POP SWAP3 SWAP2 POP POP JUMP JUMPDEST PUSH2 0xA73 DUP2 PUSH2 0xD47 JUMP JUMPDEST DUP3 MSTORE POP POP JUMP JUMPDEST PUSH2 0xA82 DUP2 PUSH2 0xD59 JUMP JUMPDEST DUP3 MSTORE POP POP JUMP JUMPDEST PUSH1 0x0 PUSH2 0xA93 DUP3 PUSH2 0xD2B JUMP JUMPDEST PUSH2 0xA9D DUP2 DUP6 PUSH2 0xD36 JUMP JUMPDEST SWAP4 POP PUSH2 0xAAD DUP2 DUP6 PUSH1 0x20 DUP7 ADD PUSH2 0xD9E JUMP JUMPDEST PUSH2 0xAB6 DUP2 PUSH2 0xED9 JUMP JUMPDEST DUP5 ADD SWAP2 POP POP SWAP3 SWAP2 POP POP JUMP JUMPDEST PUSH1 0x0 PUSH2 0xACE PUSH1 0xD DUP4 PUSH2 0xD36 JUMP JUMPDEST SWAP2 POP PUSH32 0x416C726561647920766F74656400000000000000000000000000000000000000 PUSH1 0x0 DUP4 ADD MSTORE PUSH1 0x20 DUP3 ADD SWAP1 POP SWAP2 SWAP1 POP JUMP JUMPDEST PUSH1 0x0 PUSH2 0xB0E PUSH1 0x11 DUP4 PUSH2 0xD36 JUMP JUMPDEST SWAP2 POP PUSH32 0x496E76616C69642063616E646964617465000000000000000000000000000000 PUSH1 0x0 DUP4 ADD MSTORE PUSH1 0x20 DUP3 ADD SWAP1 POP SWAP2 SWAP1 POP JUMP JUMPDEST PUSH1 0x0 PUSH2 0xB4E PUSH1 0x12 DUP4 PUSH2 0xD36 JUMP JUMPDEST SWAP2 POP PUSH32 0x4F6E6C79206F776E657220616C6C6F7765640000000000000000000000000000 PUSH1 0x0 DUP4 ADD MSTORE PUSH1 0x20 DUP3 ADD SWAP1 POP SWAP2 SWAP1 POP JUMP JUMPDEST PUSH2 0xB8A DUP2 PUSH2 0xD85 JUMP JUMPDEST DUP3 MSTORE POP POP JUMP JUMPDEST PUSH1 0x0 PUSH1 0x20 DUP3 ADD SWAP1 POP PUSH2 0xBA5 PUSH1 0x0 DUP4 ADD DUP5 PUSH2 0xA6A JUMP JUMPDEST SWAP3 SWAP2 POP POP JUMP JUMPDEST PUSH1 0x0 PUSH1 0x40 DUP3 ADD SWAP1 POP PUSH2 0xBC0 PUSH1 0x0 DUP4 ADD DUP6 PUSH2 0xA6A JUMP JUMPDEST PUSH2 0xBCD PUSH1 0x20 DUP4 ADD DUP5 PUSH2 0xB81 JUMP JUMPDEST SWAP4 SWAP3 POP POP POP JUMP JUMPDEST PUSH1 0x0 PUSH1 0x20 DUP3 ADD SWAP1 POP PUSH2 0xBE9 PUSH1 0x0 DUP4 ADD DUP5 PUSH2 0xA79 JUMP JUMPDEST SWAP3 SWAP2 POP POP JUMP JUMPDEST PUSH1 0x0 PUSH1 0x20 DUP3 ADD SWAP1 POP DUP2 DUP2 SUB PUSH1 0x0 DUP4 ADD MSTORE PUSH2 0xC09 DUP2 DUP5 PUSH2 0xA88 JUMP JUMPDEST SWAP1 POP SWAP3 SWAP2 POP POP JUMP JUMPDEST PUSH1 0x0 PUSH1 0x20 DUP3 ADD SWAP1 POP DUP2 DUP2 SUB PUSH1 0x0 DUP4 ADD MSTORE PUSH2 0xC2A DUP2 PUSH2 0xAC1 JUMP JUMPDEST SWAP1 POP SWAP2 SWAP1 POP JUMP JUMPDEST PUSH1 0x0 PUSH1 0x20 DUP3 ADD SWAP1 POP DUP2 DUP2 SUB PUSH1 0x0 DUP4 ADD MSTORE PUSH2 0xC4A DUP2 PUSH2 0xB01 JUMP JUMPDEST SWAP1 POP SWAP2 SWAP1 POP JUMP JUMPDEST PUSH1 0x0 PUSH1 0x20 DUP3 ADD SWAP1 POP DUP2 DUP2 SUB PUSH1 0x0 DUP4 ADD MSTORE PUSH2 0xC6A DUP2 PUSH2 0xB41 JUMP JUMPDEST SWAP1 POP SWAP2 SWAP1 POP JUMP JUMPDEST PUSH1 0x0 PUSH1 0x20 DUP3 ADD SWAP1 POP PUSH2 0xC86 PUSH1 0x0 DUP4 ADD DUP5 PUSH2 0xB81 JUMP JUMPDEST SWAP3 SWAP2 POP POP JUMP JUMPDEST PUSH1 0x0 PUSH1 0x60 DUP3 ADD SWAP1 POP PUSH2 0xCA1 PUSH1 0x0 DUP4 ADD DUP7 PUSH2 0xB81 JUMP JUMPDEST DUP2 DUP2 SUB PUSH1 0x20 DUP4 ADD MSTORE PUSH2 0xCB3 DUP2 DUP6 PUSH2 0xA88 JUMP JUMPDEST SWAP1 POP PUSH2 0xCC2 PUSH1 0x40 DUP4 ADD DUP5 PUSH2 0xB81 JUMP JUMPDEST SWAP5 SWAP4 POP POP POP POP JUMP JUMPDEST PUSH1 0x0 PUSH1 0x40 MLOAD SWAP1 POP DUP2 DUP2 ADD DUP2 DUP2 LT PUSH8 0xFFFFFFFFFFFFFFFF DUP3 GT OR ISZERO PUSH2 0xCF1 JUMPI PUSH2 0xCF0 PUSH2 0xEAA JUMP JUMPDEST JUMPDEST DUP1 PUSH1 0x40 MSTORE POP SWAP2 SWAP1 POP JUMP JUMPDEST PUSH1 0x0 PUSH8 0xFFFFFFFFFFFFFFFF DUP3 GT ISZERO PUSH2 0xD16 JUMPI PUSH2 0xD15 PUSH2 0xEAA JUMP JUMPDEST JUMPDEST PUSH1 0x1F NOT PUSH1 0x1F DUP4 ADD AND SWAP1 POP PUSH1 0x20 DUP2 ADD SWAP1 POP SWAP2 SWAP1 POP JUMP JUMPDEST PUSH1 0x0 DUP2 MLOAD SWAP1 POP SWAP2 SWAP1 POP JUMP JUMPDEST PUSH1 0x0 DUP3 DUP3 MSTORE PUSH1 0x20 DUP3 ADD SWAP1 POP SWAP3 SWAP2 POP POP JUMP JUMPDEST PUSH1 0x0 PUSH2 0xD52 DUP3 PUSH2 0xD65 JUMP JUMPDEST SWAP1 POP SWAP2 SWAP1 POP JUMP JUMPDEST PUSH1 0x0 DUP2 ISZERO ISZERO SWAP1 POP SWAP2 SWAP1 POP JUMP JUMPDEST PUSH1 0x0 PUSH20 0xFFFFFFFFFFFFFFFFFFFFFFFFFFFFFFFFFFFFFFFF DUP3 AND SWAP1 POP SWAP2 SWAP1 POP JUMP JUMPDEST PUSH1 0x0 DUP2 SWAP1 POP SWAP2 SWAP1 POP JUMP JUMPDEST DUP3 DUP2 DUP4 CALLDATACOPY PUSH1 0x0 DUP4 DUP4 ADD MSTORE POP POP POP JUMP JUMPDEST PUSH1 0x0 JUMPDEST DUP4 DUP2 LT ISZERO PUSH2 0xDBC JUMPI DUP1 DUP3 ADD MLOAD DUP2 DUP5 ADD MSTORE PUSH1 0x20 DUP2 ADD SWAP1 POP PUSH2 0xDA1 JUMP JUMPDEST DUP4 DUP2 GT ISZERO PUSH2 0xDCB JUMPI PUSH1 0x0 DUP5 DUP5 ADD MSTORE JUMPDEST POP POP POP POP JUMP JUMPDEST PUSH1 0x0 PUSH1 0x2 DUP3 DIV SWAP1 POP PUSH1 0x1 DUP3 AND DUP1 PUSH2 0xDE9 JUMPI PUSH1 0x7F DUP3 AND SWAP2 POP JUMPDEST PUSH1 0x20 DUP3 LT DUP2 EQ ISZERO PUSH2 0xDFD JUMPI PUSH2 0xDFC PUSH2 0xE7B JUMP JUMPDEST JUMPDEST POP SWAP2 SWAP1 POP JUMP JUMPDEST PUSH1 0x0 PUSH2 0xE0E DUP3 PUSH2 0xD85 JUMP JUMPDEST SWAP2 POP PUSH32 0xFFFFFFFFFFFFFFFFFFFFFFFFFFFFFFFFFFFFFFFFFFFFFFFFFFFFFFFFFFFFFFFF DUP3 EQ ISZERO PUSH2 0xE41 JUMPI PUSH2 0xE40 PUSH2 0xE4C JUMP JUMPDEST JUMPDEST PUSH1 0x1 DUP3 ADD SWAP1 POP SWAP2 SWAP1 POP JUMP JUMPDEST PUSH32 0x4E487B7100000000000000000000000000000000000000000000000000000000 PUSH1 0x0 MSTORE PUSH1 0x11 PUSH1 0x4 MSTORE PUSH1 0x24 PUSH1 0x0 REVERT JUMPDEST PUSH32 0x4E487B7100000000000000000000000000000000000000000000000000000000 PUSH1 0x0 MSTORE PUSH1 0x22 PUSH1 0x4 MSTORE PUSH1 0x24 PUSH1 0x0 REVERT JUMPDEST PUSH32 0x4E487B7100000000000000000000000000000000000000000000000000000000 PUSH1 0x0 MSTORE PUSH1 0x41 PUSH1 0x4 MSTORE PUSH1 0x24 PUSH1 0x0 REVERT JUMPDEST PUSH1 0x0 PUSH1 0x1F NOT PUSH1 0x1F DUP4 ADD AND SWAP1 POP SWAP2 SWAP1 POP JUMP JUMPDEST PUSH2 0xEF3 DUP2 PUSH2 0xD47 JUMP JUMPDEST DUP2 EQ PUSH2 0xEFE JUMPI PUSH1 0x0 DUP1 REVERT JUMPDEST POP JUMP JUMPDEST PUSH2 0xF0A DUP2 PUSH2 0xD85 JUMP JUMPDEST DUP2 EQ PUSH2 0xF15 JUMPI PUSH1 0x0 DUP1 REVERT JUMPDEST POP JUMP INVALID LOG2 PUSH5 0x6970667358 0x22 SLT KECCAK256 PUSH12 0x8412B4597B0CB4F123E5A5F0 SWAP14 0xE5 0xDC PUSH13 0x15B846C790B53D54CC18F55330 PUSH25 0x7D64736F6C6343000800003300000000000000000000000000 "
				},
				"gasEstimates": {
					"creation": {
						"codeDepositCost": "783600",
						"executionCost": "infinite",
						"totalCost": "infinite"
					},
					"external": {
						"addCandidate(string)": "infinite",
						"candidates(uint256)": "infinite",
						"getCandidatesCount()": "1167",
						"hasVoted(address)": "1568",
						"owner()": "1211",
						"resetElection()": "infinite",
						"vote(uint256)": "infinite",
						"voters(uint256)": "2400"
					}
				},
				"methodIdentifiers": {
					"addCandidate(string)": "462e91ec",
					"candidates(uint256)": "3477ee2e",
					"getCandidatesCount()": "bb9aa28f",
					"hasVoted(address)": "09eef43e",
					"owner()": "8da5cb5b",
					"resetElection()": "e8f30523",
					"vote(uint256)": "0121b93f",
					"voters(uint256)": "da58c7d9"
				}
			},
			"storageLayout": {
				"storage": [
					{
						"astId": 3,
						"contract": "Bai-Thuc-Hanh-DTH225710-LeTriNhan/Lab3/Election.sol:Election",
						"label": "owner",
						"offset": 0,
						"slot": "0",
						"type": "t_address"
					},
					{
						"astId": 14,
						"contract": "Bai-Thuc-Hanh-DTH225710-LeTriNhan/Lab3/Election.sol:Election",
						"label": "candidates",
						"offset": 0,
						"slot": "1",
						"type": "t_array(t_struct(Candidate)10_storage)dyn_storage"
					},
					{
						"astId": 18,
						"contract": "Bai-Thuc-Hanh-DTH225710-LeTriNhan/Lab3/Election.sol:Election",
						"label": "hasVoted",
						"offset": 0,
						"slot": "2",
						"type": "t_mapping(t_address,t_bool)"
					},
					{
						"astId": 21,
						"contract": "Bai-Thuc-Hanh-DTH225710-LeTriNhan/Lab3/Election.sol:Election",
						"label": "voters",
						"offset": 0,
						"slot": "3",
						"type": "t_array(t_address)dyn_storage"
					}
				],
				"types": {
					"t_address": {
						"encoding": "inplace",
						"label": "address",
						"numberOfBytes": "20"
					},
					"t_array(t_address)dyn_storage": {
						"base": "t_address",
						"encoding": "dynamic_array",
						"label": "address[]",
						"numberOfBytes": "32"
					},
					"t_array(t_struct(Candidate)10_storage)dyn_storage": {
						"base": "t_struct(Candidate)10_storage",
						"encoding": "dynamic_array",
						"label": "struct Election.Candidate[]",
						"numberOfBytes": "32"
					},
					"t_bool": {
						"encoding": "inplace",
						"label": "bool",
						"numberOfBytes": "1"
					},
					"t_mapping(t_address,t_bool)": {
						"encoding": "mapping",
						"key": "t_address",
						"label": "mapping(address => bool)",
						"numberOfBytes": "32",
						"value": "t_bool"
					},
					"t_string_storage": {
						"encoding": "bytes",
						"label": "string",
						"numberOfBytes": "32"
					},
					"t_struct(Candidate)10_storage": {
						"encoding": "inplace",
						"label": "struct Election.Candidate",
						"members": [
							{
								"astId": 5,
								"contract": "Bai-Thuc-Hanh-DTH225710-LeTriNhan/Lab3/Election.sol:Election",
								"label": "id",
								"offset": 0,
								"slot": "0",
								"type": "t_uint256"
							},
							{
								"astId": 7,
								"contract": "Bai-Thuc-Hanh-DTH225710-LeTriNhan/Lab3/Election.sol:Election",
								"label": "name",
								"offset": 0,
								"slot": "1",
								"type": "t_string_storage"
							},
							{
								"astId": 9,
								"contract": "Bai-Thuc-Hanh-DTH225710-LeTriNhan/Lab3/Election.sol:Election",
								"label": "voteCount",
								"offset": 0,
								"slot": "2",
								"type": "t_uint256"
							}
						],
						"numberOfBytes": "96"
					},
					"t_uint256": {
						"encoding": "inplace",
						"label": "uint256",
						"numberOfBytes": "32"
					}
				}
			},
			"userdoc": {
				"kind": "user",
				"methods": {},
				"version": 1
			}
		}
	}
}